S01400006275696C642F6837626F6F742E737265637E
S315080000000000022099020008BD170000BF17000073
S31508000010C1170000C3170000C51700000000000044
S31508000020000000000000000000000000C7170000E4
S31508000030C917000000000000CB170000CD1700000C
S315080000401503000815030008150300081503000822
S315080000501503000815030008150300081503000812
S315080000601503000815030008150300081503000802
S3150800007015030008150300081503000815030008F2
S3150800008015030008150300081503000815030008E2
S3150800009015030008150300081503000815030008D2
S315080000A015030008150300081503000815030008C2
S315080000B015030008150300081503000815030008B2
S315080000C015030008150300081503000815030008A2
S315080000D01503000815030008D517000015030008C6
S315080000E015030008150300080000000015030008A2
S315080000F01503000815030008150300081503000872
S315080001001503000815030008150300081503000861
S315080001101503000815030008150300081503000851
S315080001201503000815030008150300081503000841
S315080001301503000815030008150300081503000831
S3150800014000000000000000000000000000000000A1
S315080001501503000815030008150300081503000811
S315080001601503000815030008150300081503000801
S3150800017015030008150300081503000815030008F1
S3150800018015030008150300081503000815030008E1
S3150800019015030008150300081503000815030008D1
S315080001A015030008150300081503000815030008C1
S315080001B015030008DD1700001503000815030008DD
S315080001C015030008150300081503000815030008A1
S315080001D015030008ED1700001503000815030008AD
S315080001E01503000815030008150300081503000881
S315080001F01503000815030008150300081503000871
S315080002001503000815030008150300081503000860
S315080002101503000815030008150300081503000850
S315080002201503000815030008150300080000000060
S315080002301503000815030008000000001503000850
S315080002401503000815030008150300081503000820
S315080002501503000815030008150300081503000810
S315080002601503000815030008150300081503000800
S315080002701503000815030008150300080000000010
S315080002801503000815030008150300080000000000
S30D08000290000000001503000838
S31508000298DFF854D0002103E0144B5B58435004316F
S315080002A81348144B42189A42F6D3002103E0124B1E
S315080002B85B58435004311148114B42189A42F6D3F9
S315080002C8104A02E0002342F8043B0F4B9A42F9D33E
S315080002D8BFF34F8FBFF36F8F00F01EF800F020F8BA
S315080002E800F016F870470000000002209C9E0008DF
S315080002F800000020780400203003000800040000ED
S315080003085C9F000080040020EC2D0020FEE700001A
S315080003185FF800F0151000005FF800F0857C000013
S30D080003285FF800F0758A000079
S3150800033010B5054C237833B9044B13B10448AFF311
S3150800034000800123237010BD8004002000000000F7
S31508000350449F00000C4B43B10C480D4910B5AFF350
S3150800036000800C48036823B910BD0A48036833B9EE
S315080003707047094B002BF7D0BDE810401847064BCD
S31508000380002BF5D0184700BF00000000449F00006E
S31508000390840400207804002000000000000000000B
S315080003A001F0FF01102A2BDB10F0070F08D010F818
S315080003B0013B013A8B422DD010F0070F42B3F6D11C
S315080003C0F0B441EA012141EA014122F007047FF035
S315080003D000070023F0E80256083C85EA010586EA8C
S315080003E0010685FA47F5A3FA87F586FA47F6A5FAC8
S315080003F087F68EB9EED1F0BC01F0FF0102F00702D4
S3150800040032B110F8013B013A83EA010313B1F8D17E
S315080004100020704701387047002D06BF354603385F
S31508000420073815F0010F07D1013015F4807F02BF98
S31508000430013015F4C03F0130F0BC0138704700BFE9
S3150800044053B94AB9002908BF00281CBF4FF0FF312D
S315080004504FF0FF3000F07AB9ADF1080C6DE904CE23
S3150800046000F006F8DDF804E0DDE9022304B0704781
S315080004702DE9F0478C460D460446089E002B51D1BF
S315080004808A4217466DD9B2FA82FEBEF1000F0BD02A
S31508000490CEF1200C01FA0EF520FA0CFC02FA0EF742
S315080004A04CEA050C00FA0EF44FEA174A250CBCFB79
S315080004B0FAF81FFA87F90AFB18CC45EA0C4508FB37
S315080004C009F3AB420AD9ED1908F1FF3280F023810E
S315080004D0AB4240F22081A8F102083D44ED1AA4B2CD
S315080004E0B5FBFAF00AFB105544EA054400FB09F986
S315080004F0A14509D9E41900F1FF3380F00A81A14525
S3150800050040F2078102383C44A4EB090440EA08405B
S315080005100021002E61D024FA0EF4002334607360A3
S31508000520BDE8F0878B4207D9002E54D0002186E813
S3150800053021000846BDE8F087B3FA83F1002940F0A8
S315080005408E80AB4202D3824200F2FA80841A65EBAF
S3150800055003050120AC46002E3FD086E81010BDE802
S31508000560F08712B90127B7FBF2F7B7FA87FEBEF193
S31508000570000F34D1EB1B3A0C1FFA87FC0121B3FBA1
S31508000580F2F8250C02FB183345EA03450CFB08F381
S31508000590AB4207D9ED1908F1FF3002D2AB4200F29F
S315080005A0D1808046ED1AA3B2B5FBF2F002FB1055D6
S315080005B043EA05440CFB00FCA44507D9E41900F1FD
S315080005C0FF3302D2A44500F2B8801846A4EB0C0407
S315080005D040EA08409DE731463046BDE8F087CEF14F
S315080005E0200405FA0EF307FA0EF720FA04F83A0C77
S315080005F025FA04F448EA0308B4FBF2F14FEA184571
S3150800060002FB11441FFA87FC45EA044501FB0CF37B
S31508000610AB4200FA0EF409D9ED1901F1FF3080F06A
S315080006208A80AB4240F2878002393D44EB1A1FFAB2
S3150800063088F5B3FBF2F002FB103345EA034500FBED
S315080006400CF3AB4207D9ED1900F1FF386FD2AB4274
S315080006506DD902383D44EB1A40EA01418FE7C1F1F2
S31508000660200722FA07F88B4005FA01F448EA030343
S3150800067020FA07FE4FEA134CFD404EEA040EB5FB7E
S31508000680FCF94FEA1E440CFB19551FFA83F844EA95
S31508000690054509FB08F4AC4202FA01F200FA01FA30
S315080006A008D9ED1809F1FF3043D2AC4241D9A9F176
S315080006B002091D442D1B1FFA8EFEB5FBFCF00CFB30
S315080006C010554EEA054400FB08F8A04507D9E4187A
S315080006D000F1FF3529D2A04527D902381C4440EA43
S315080006E00940A4EB0804A0FB02894C45C6464D46C2
S315080006F015D312D056B1BAEB0E0364EB050404FA0F
S3150800070007F7CB401F43CC40376074600021BDE833
S31508000710F0871846F8E69046E0E6C245EAD2B8EB16
S31508000720020E69EB03050138E4E72846D7E7404699
S3150800073091E78146BEE7014678E702383C4445E73B
S31508000740084608E7A8F102083D442BE7704700BFB2
S31508000750BFF34F8F0549CA6802F4E062044B13439E
S31508000760CB60BFF34F8F00BFFDE700BF00ED00E091
S315080007700400FA0500BE30BFFDE70000024A4FF04C
S3150800078060531A60704700BF22BB33EE00224FF059
S3150800079060531A60704700004FF060531A68074BA1
S315080007A01B68B3F1FF3F06D0054B9A4201D00020E3
S315080007B07047012070470120704700BF00040208F7
S315080007C022BB33EE024A4FF060531A60704700BFEF
S315080007D0EECCBBAA4FF060531A6803F1E54303F564
S315080007E06F1303F6EE439A4201D0002070470120AA
S315080007F0704710B50446FFF7C9FF6368984708B500
S31508000800FFF7E0FFFFF7A4FF70B5064601F0E3F92E
S31508000810054608F0EBF804462A460146304601F03C
S3150800082075F92946204601F065FA204608F0E6F8EB
S3150800083070BD70B5064601F0CEF9054608F0D6F843
S3150800084004462A460146304601F060F92A46214602
S31508000850012008F0DFFA204608F0D0F870BD00B590
S315080008608DB0072301930020009002AB2822014691
S3150800087001F0A8F8024602A9012008F0CBFA0DB04B
S315080008805DF804FB00B58DB00823019300200090A5
S315080008906B442822014601F095F8024602A9012078
S315080008A008F0B8FA0DB05DF804FB0FB4F0B585B0E2
S315080008B00AAB53F8046B039332460021084608F046
S315080008C0DFFA451C284608F091F8044668B3039BEE
S315080008D03246294608F0D4FA00231A462946204605
S315080008E001F023F9074608F081F8064680B100238F
S315080008F00193009303463A462946204601F062F8DA
S315080009000246874200D000BE3146012008F082FA2E
S3150800091014B1204608F072F816B1304608F06EF8A1
S3150800092005B0BDE8F04004B070470646F0E70000A1
S3150800093038B501F04BFA054601F04EFA04460C4864
S31508000940FFF7B3FF01F046FA0C280AD00948FFF76B
S31508000950ACFF224621460848FFF7A7FFFFF77FFFAF
S3150800096038BDAB686A6829680448FFF79EFFF0E758
S31508000970FC02002048030020680300202C03002006
S3150800098000B587B0002303930493012301930293D0
S315080009903023059304F0A2FCC0B9694601A804F007
S315080009A037FEB0B902230293694601A804F030FE67
S315080009B090B904F0C1FC90B904F0DCFC90B9BFF31F
S315080009C04F8FBFF36F8F07B05DF804FB0748FFF73B
S315080009D0D1FE0648FFF7CEFE0448FFF7CBFE0348D4
S315080009E0FFF7C8FE0148FFF7C5FE00BF000200205A
S315080009F000B587B0002301930293039304930593EC
S31508000A00016843688268481E01281FD8072B20D82A
S31508000A109818082820D8FAB1029103930492302333
S31508000A20059304F05BFCD0B9694601A804F0F0FD13
S31508000A30C0B904F081FCC0B904F09CFCC0B9BFF38E
S31508000A404F8FBFF36F8F07B05DF804FB0A48FFF7B7
S31508000A5091FE0948FFF78EFE0748FFF78BFE06480A
S31508000A60FFF788FE0448FFF785FE0348FFF782FE76
S31508000A700148FFF77FFE00BFF0010020F0B585B002
S31508000A80054600F069FC2C686D68E30FAC42C8BFE8
S31508000A9043F00103002B40D1064627460F2CD4BF4E
S31508000AA000230123002D38DB002B36D10F2D34DC33
S31508000AB0002C08BF0F2D39D0072C0ADC072D38DC8F
S31508000AC02B1B0133012201920294039301A8FFF71D
S31508000AD08FFF072D18DD082C2EDD7F4204F0070452
S31508000AE007F0070758BF7C426B4205F0070503F07D
S31508000AF0070358BF5D422D1B01350223019302945B
S31508000B00039501A8FFF774FF00F026FC811B0B482C
S31508000B10FFF7CBFEFFF7A3FE06E02A462146084864
S31508000B20FFF7C3FEFFF7AEFE05B0F0BDFFF728FFDF
S31508000B30EAE7C4F10803C5E70024D5E75002002018
S31508000B40380200202DE9F04180468C691034066889
S31508000B500F68103F3D461F4BD3E9002313431DD0B2
S31508000B6017F01F0F21D104F0B9FBBFF35F8F5DB1FA
S31508000B7022463146012004F081FC2034203D2036EF
S31508000B800028F4D0FFF77EFE04F0D6FBD8F8043030
S31508000B90012B12D0FFF763FEBDE8F08100F0DCFB05
S31508000BA00C4B186000225A60DAE739460A48FFF704
S31508000BB07CFEFFF767FEBDE8F08100F0CDFB054C33
S31508000BC02168411A0548FFF770FE00220023C4E990
S31508000BD00023DFE7A00C0020A0020020D40200209A
S31508000BE008B506490648FFF760FEFFF738FEFFF727
S31508000BF0E9FD0A2004F0B2FFFFF7AAFD0004020887
S31508000C000C02002070B584B005460E4683696C4612
S31508000C10186859689A68DB680FC4013B072B18D80F
S31508000C20DFE803F0040C171017171715FFF780FEF7
S31508000C302A68F3681344F36004B070BD6846FFF78A
S31508000C401DFFF5E729466846FFF77CFFF0E7FFF743
S31508000C50C7FFFFF793FDEBE710B50C46837F022B22
S31508000C6008D053B14368022B0AD014B12369013363
S31508000C70236110BDFFF7C8FDF7E7FFF7DAFDF4E7D4
S31508000C80FFF7C0FFF1E7000078B170B50446067FAC
S31508000C90427F012A21D00D464AB916F0080F0BD11A
S31508000CA016F0010F0CD1002070BD00BE704711462A
S31508000CB00B4807F06BFFF0E70A4807F0DBFFEFE7A2
S31508000CC029462046FFF7C8FFA06908B107F096FE37
S31508000CD00023A3612360012070BD002070BD00BF02
S31508000CE0780200208C02002008B500F091FC01462D
S31508000CF048B1064B186840230222806807F0D2FFE5
S31508000D0000B100BE08BD00BEF3E700BF7C010020AD
S31508000D1010B50D4C0121204604F017FE642004F09E
S31508000D201DFF0121204604F010FE642004F016FF82
S31508000D300121204604F009FE642004F00FFF01217A
S31508000D40204604F002FE10BD0004025810B5144CEB
S31508000D500121204604F0F9FD322004F0FFFE0121AE
S31508000D60204604F0F2FD322004F0F8FE0221204667
S31508000D7004F0EBFD322004F0F1FE0221204604F0D7
S31508000D80E4FD322004F0EAFE0421204604F0DDFDED
S31508000D90322004F0E3FE0421204604F0D6FD10BDFF
S31508000DA00004025830B589B020220021684607F0B1
S31508000DB038FE4FF400620E49002008F021F8051E9F
S31508000DC010DB00246A46291B0948204400F058FD18
S31508000DD0002809DB044407496846FFF755FF002841
S31508000DE0F0D102E000BE00E000BE09B030BD00BF91
S31508000DF09C040020A80C002070B588B006460D4655
S31508000E0020220021684607F00CFE00246A46291BAA
S31508000E10301900F035FD002807DB04440021684638
S31508000E20FFF732FF0028F1D100E000BE08B070BD20
S31508000E3008B507F0DBFD08BD00BE704700B5CDB0AC
S31508000E404C22002139A807F0ECFD2022002131A808
S31508000E5007F0E7FDBC22002102A807F0E2FD022008
S31508000E6004F07CFD00230193334BDA6A22F0010279
S31508000E70DA62DB6A03F001030193304A936923F4CB
S31508000E80404343F480439361936903F440430193D9
S31508000E90019B2A4B9B6913F4005FFAD0052339930B
S31508000EA04FF480323A923B930223429343930122B2
S31508000EB044921722459246930422479280224892EA
S31508000EC00C2249924A934FF460634B9339A802F077
S31508000ED0F7FC38BB3F233193032332930023339324
S31508000EE034937023359336934FF4E06237923893F0
S31508000EF0042131A803F0D4F8B8B9114B02930023A2
S31508000F00139314931F934FF4801323934FF0405376
S31508000F10259302A803F05EFB50B904F049FD4DB0D5
S31508000F205DF804FBFFF788FFD4E7FFF785FFE4E7E2
S31508000F30FFF782FFF1E700BF000400580048025897
S31508000F402200040310B5FFF745FC10B13248FFF73D
S31508000F5050FC32490024324A521A204607F056FD00
S31508000F60304B9C60BFF34F8FBFF36F8F62B604F0B0
S31508000F70B5FDFFF763FF00F0D3F9FA2004F0EEFDA4
S31508000F8000F056F8FFF7B0FE00F02EFA04F0E0FD88
S31508000F900446FFF7BDFE00E020BF04F0D9FD001BA4
S31508000FA042F20F7398420BD801211F4804F0C0FC87
S31508000FB00128F1D100F07AFEFFF7EEFB0028EBD00E
S31508000FC0FFF7EAFB08B9FFF71AFCFFF7DFFBFFF7A5
S31508000FD0BDFE00F00DFF154BD3F8002142F000626C
S31508000FE0C3F80021D3F8002122F08052C3F800216B
S31508000FF004F0CEFD06E001210B4804F099FC012817
S3150800100007D020BF00F008FB0028F4D0FFF7CAFE7F
S31508001010F1E700F04BFEF4E70004020800000008C0
S315080010209802000800ED00E000000258004402584B
S315080010302DE9F04F8FB0002409940A940B940C9470
S315080010400D948D4BD3F8E02042F01002C3F8E0204F
S31508001050D3F8E02002F010020192019AD3F8E020BA
S3150800106042F00402C3F8E020D3F8E02002F00402BC
S315080010700292029AD3F8E02042F02002C3F8E02058
S31508001080D3F8E02002F020020392039AD3F8E02076
S3150800109042F08002C3F8E020D3F8E02002F0800294
S315080010A00492049AD3F8E02042F00102C3F8E02043
S315080010B0D3F8E02002F001020592059AD3F8E02061
S315080010C042F00202C3F8E020D3F8E02002F0020260
S315080010D00692069AD3F8E02042F04002C3F8E020D0
S315080010E0D3F8E02002F040020792079AD3F8E020EE
S315080010F042F00802C3F8E020D3F8E03003F0080312
S315080011000893089BDFF8889101220321484604F0DA
S3150800111016FCDFF8808122464FF48171404604F0C0
S315080011200EFC564F01220721384604F008FC2246D9
S315080011304FF40061384604F002FC01224021504871
S3150800114004F0FDFB202309930A9401260B96DFF889
S3150800115048B109A9584604F0F3FA4FF0400ACDF809
S3150800116024A003250A950B9409A9584604F0E8FA21
S3150800117043F67C7309930A950B9409A9484604F02B
S31508001180DFFA4FF4086309930A950B9409A93D48B9
S3150800119004F0D6FA099611230A930B940C9409A91C
S315080011A0484604F0CDFA4FF0020BCDF824B00A9663
S315080011B00B940C9409A9484604F0C2FA0996324BD6
S315080011C00A93CDF82CB009A9404604F0B9FA4FF4B1
S315080011D0817309930A960B940C9409A9404604F066
S315080011E0AFFA4FF49E6309930A950B9409A94046F2
S315080011F004F0A6FA40F6070309930A960B940C9492
S3150800120009A9384604F09CFA4FF4404309930A9515
S315080012100B9409A9384604F093FACDF824A00A9647
S315080012200B940C9409A9164804F08AFA4FF4C07373
S3150800123009930A940B9409A9114804F081FACC235E
S3150800124009930A950B9409A9104804F079FA4FF402
S315080012507E4309930A950B9409A9094804F070FA84
S315080012604FF4787309930A940B9409A9384604F045
S3150800127067FA0FB0BDE8F08F004402580004025820
S31508001280001802580014025800003211000C0258C7
S3150800129000080258000002580010025808B54FF618
S315080012A0FF71034804F0B4FE00B100BE002008BD7B
S315080012B0AC2300202DE9F0470324BCB172B6DFF851
S315080012C05CA0504604F0ECFC0546124B1B681F0C4C
S315080012D01E0416EB000847F1000962B600BF504627
S315080012E004F0DEFC854201D9013CE6E704B900BEFC
S315080012F0094BD3E90001894508BF804506D3064B4B
S31508001300C3E9008940464946BDE8F08700BEBDE806
S31508001310F08700BFBC0C0020C00C0020AC230020C6
S3150800132008B50B480B4B03600023436083604FF6F8
S31508001330FF724261036243628362C362036304F01D
S315080013404FFC10B9FFF7AAFF08BDFFF775FDF9E7CF
S31508001350AC2300200024004038B5FFF7ABFF4C0152
S31508001360420144EAD063121A63EB01039C0044EA83
S31508001370927495002A1844EB0103D80040EA52708B
S31508001380D100CA0B42EA404038BD0000034A136840
S3150800139001331360BFF35F8F704700BFBC0C00209A
S315080013A002680F4B9A4201D000BE704700B583B061
S315080013B00C4BD3F8E82042F40072C3F8E820D3F8BF
S315080013C0E83003F400730193019B002211465D2067
S315080013D004F008FB5D2004F035FB03B05DF804FB60
S315080013E0002400400044025808B51748174B03600C
S315080013F04FF46143436000238360C36003610C229A
S3150800140042618361C36103624362836206F0FCFA48
S3150800141070B900210C4806F082FB60B900210A4821
S3150800142006F0A2FB50B9084806F05AFB48B908BDB1
S31508001430FFF702FDEDE7FFF7FFFCEFE7FFF7FCFC20
S31508001440F1E7FFF7F9FCF2E77024002000440040BA
S3150800145000B58BB000230593069307930893099369
S3150800146003682D4A934205D02C4A934227D00BB0E5
S315080014705DF804FB2A4BD3F8E82042F48012C3F83F
S31508001480E820D3F8E82002F480120192019AD3F8F2
S31508001490E02042F00202C3F8E020D3F8E03003F07F
S315080014A002030293029B4FF44053059302230693CB
S315080014B00E23099305A91B4804F042F9D7E7184BF0
S315080014C0D3F8E82042F40032C3F8E820D3F8E8203D
S315080014D002F400320392039AD3F8E02042F00102A4
S315080014E0C3F8E020D3F8E03003F001030493049B2B
S315080014F00C230593022306930723099305A90A4893
S3150800150004F01EF900221146262004F06BFA262064
S3150800151004F098FAABE700BF0050004000440040D2
S31508001520004402580004025800000258014B18688B
S31508001530704700BF60150020044BD3F8B832D3F8C3
S3150800154014320BB90020704701207047FC24002094
S315080015500020704770B50D46124B1B690A68134484
S31508001560B3F5006F06D900BE0E4B00221A615A6801
S3150800157001325A600B4C23690B4E2A6831460B48D8
S31508001580184407F043FA23692A6813442361084C70
S315080015903146204607F0CDF9204607F0EAF9002043
S315080015A070BD00BF60150020E0140020C80C0020A4
S315080015B0FC2400200023036043608360C36003614A
S315080015C07047000008B50248FFF7F4FF002008BD81
S315080015D06015002010B50A4C00220A49204607F07B
S315080015E0A0F90949204607F0A4F972B6074C204627
S315080015F0FFF7E0FF0123236062B6002010BD00BF9D
S31508001600FC24002020150020E0140020601500208E
S315080016100048704720150020014B1869704700BF25
S3150800162060150020094BD3F8B832D3F814320BB141
S315080016300120704710B50A460146044C204607F0BB
S3150800164070F9204607F07BF910BD00BFFC24002086
S3150800165038B5154B1B6923B31446084672B6124BA8
S315080016601B6993420DD8104C2269104907F0CEF930
S315080016702069002323610C4AD3680344D36062B609
S3150800168038BD0A4D294607F0C1F9C4F50062291983
S31508001690284607F0BBF9044A13691B1B1361204649
S315080016A0E9E7002038BD00BF60150020C80C0020FF
S315080016B038B50D461446FFF739FF98B1A1B228464A
S315080016C0FFF7B0FF0128F9D000B100BE72B6064A8E
S315080016D093682344936062B600E030BFFFF72CFF9F
S315080016E00028FAD1204638BD601500207047FEE76D
S315080016F0FEE7FEE7FEE770477047704708B504F057
S315080017001BFA08BD08B500F02BFB08BD08B5024852
S3150800171004F0CFFA08BD00BFAC23002008B5024884
S3150800172000F04CFF08BD00BFC029002000B583B0FB
S31508001730094BD3F8F42042F00202C3F8F420D3F898
S31508001740F43003F002030193019B072004F038F9F3
S3150800175003B05DF804FB00BF004402580020704740
S3150800176010B51446FFF7FAFFA04214BF0020012067
S3150800177010BD00000222134B1A70134B1B688B42D4
S315080017801ED2591C104A1160C35C7E2B0ED083F002
S3150800179020030E480268511C01600D488354B1F5B8
S315080017A0006F0AD00120074B187070470120054BBF
S315080017B018700022054B1A607047044B1A60F1E74F
S315080017C0002070477C1D002074150020781D00201D
S315080017D07815002038B5144B1B78022B10D0134B04
S315080017E01B6899421ED95C1C104A1460C35C7D2B89
S315080017F009D07E2B0AD103220B4B1A70002038BD64
S31508001800FFF7B8FF38BDFFF7B5FF38BD084D2A68A2
S31508001810541C2C60074DAB54B4F5006FDFD1044B54
S315080018201A60DCE7002038BD7C1D002074150020F6
S31508001830781D0020781500200023024A1360024A0A
S3150800184013707047781D00207C1D002038B50546AA
S315080018500C46FFF7F1FF084B1B68A34209D2591C37
S31508001860054A1160EB5C7E2BF5D10120034B1870FD
S3150800187038BD002038BD00BF741500207C1D00202F
S31508001880F8B51646002970D005460F46002A18BF37
S31508001890002871D00022464B1A60012408E0394618
S315080018A02846FFF7D3FF434B1B78032B0ED004467D
S315080018B0ACB1404B1B78002BF1D0022B04D839462B
S315080018C02846FFF787FFEEE72046ECE73A4B1B680A
S315080018D0002BECD10122374B1A702046E7E7354B2F
S315080018E01B78002B4DD05A1ED2B2012A4DD9032B94
S315080018F04FD1314B1C68A4F11105102C4ED9A4F117
S315080019000C07083C20220021304607F08AF82B48AD
S315080019100378B377D0F801307360C259B2600319FF
S3150800192019685B683161736129460530FFF718FF4E
S3150800193070B1002475B944F0040400233360B36120
S3150800194044F001041A4B1D68FFF776FF00230FE0E9
S315080019500824EFE735602846FFF76AFAB06110B346
S315080019603268174907F052F8EAE700252C460123A2
S31508001970737734772846F8BD4FF0FF3500240323E4
S31508001980F6E700252C460123F2E7002502242B461C
S31508001990EEE74FF0FF3500240423E9E74FF0FF3563
S315080019A000240523E4E74FF0FF350023E0E700BFF6
S315080019B0741500207C1D0020781D00207815002055
S315080019C07D150020F0B585B09DF828508E46B0FAF2
S315080019D080F46409002908BF0024002C40F08380A5
S315080019E084467E2119700021012409B1002514E0DE
S315080019F094427BD2A5F17D00012808D8601C7D267B
S31508001A001E5585F020061E5402340131EDE71D559A
S31508001A100134FAE7195501340135032D0FD80BA9FE
S31508001A20495D944265D2A1F17D000128F2D8601C77
S31508001A307D261E5581F0200119540234ECE7002555
S31508001A4002E01E550134013575450FD21CF80560B4
S31508001A50944251D2A6F17D07012FF2D8671C7D2149
S31508001A60195586F02006DE550234ECE771466046C5
S31508001A701D461646FFF772FE0190002302E02A551E
S31508001A8001340133032B0FD801AAD25CB44237D2F2
S31508001A90A2F17D010129F2D8611C7D20285582F02A
S31508001AA020026A540234ECE708220023CDE9022317
S31508001AB0002302E02A5501340133072B0FD802AA66
S31508001AC0D25CB4421FD2A2F17D010129F2D8611C71
S31508001AD07D20285582F020026A540234ECE77E23E2
S31508001AE02B55601C0AE04FF0FF3007E04FF0FF303F
S31508001AF004E04FF0FF3001E04FF0FF3005B0F0BDD5
S31508001B004FF0FF30FAE74FF0FF30F7E730B583B014
S31508001B10034680691C689D7F5B68019300950B46A8
S31508001B202146FFF74FFF03B030BD70B586B001936D
S31508001B300D46B0FA80F35B09002908BF0023002B85
S31508001B4046D106460023012401E001340133002B67
S31508001B50FBD0002301E001340133032B06D801AA88
S31508001B60D25C7D3A012AF6D80234F5E7002301E073
S31508001B7001340133AB4205D2F25C7D3A012AF7D82B
S31508001B800234F6E729463046FFF7E8FD03900023BE
S31508001B9001E001340133032B06D803AAD25C7D3A4F
S31508001BA0012AF6D80234F5E708220023CDE90423F2
S31508001BB0002301E001340133072B06D804AAD25CBE
S31508001BC07D3A012AF6D80234F5E7601C06B070BDE6
S31508001BD04FF0FF30FAE708B54368827F01688069ED
S31508001BE0FFF7A3FF08BD000030B9074B1A68136852
S31508001BF023F0200313607047034B1A68136843F0F9
S31508001C0020031360704700BF7024002008B5012226
S31508001C10034B1A700221034803F091FE08BD00BF6A
S31508001C20812100200000025808B50022034B1A70D3
S31508001C300221034803F083FE08BD00BF812100206E
S31508001C400000025808B50121014803F071FE08BDDD
S31508001C500000025870B506460C46FFF7F3FF054626
S31508001C60B04205D0012003F079FF013C002CF4DCDA
S31508001C70284670BD38B50B4B1C78E4B200221A70A2
S31508001C80204606F0B3FE58B105462246064906F038
S31508001C90BDFE21462846FFF7AFF8284606F0AEFEF9
S31508001CA038BD00BF80210020801D002008B5012016
S31508001CB0FFF79AFF14210120FFF7CCFF08B900BEF1
S31508001CC008BDFFF7A3FFFFF7BDFF08B120BFFAE77E
S31508001CD0064B1B7803B100BE0020FFF785FF044BB7
S31508001CE01B7803B908BDFFF7C5FFFBE78121002074
S31508001CF08021002070B505460E460124154B1C7040
S31508001D002046FFF771FFFFF781FF14212046FFF7F2
S31508001D10A1FF08B900BE70BD4FF47A73B2B2294666
S31508001D200D4805F0C9FD00B100BE0024094B1C7022
S31508001D30FFF77AFF4FF47A712046FFF78BFF2046AC
S31508001D40FFF752FF054B1B7803B970BDFFF792FFEB
S31508001D50FBE700BF7D1D00207024002080210020A5
S31508001D6010B50B4B1B685C6AE4B20A4B1B7813B9B7
S31508001D70094B1B7843B107490B78DBB25A1CD2B220
S31508001D800A70064AD45410BDFFF74EFFF3E700BFAA
S31508001D9070240020802100207D1D0020801D002049
S31508001DA0002241F205538A420ED210B4013203EBE7
S31508001DB04313047814FA83F39BB201308A42F5D3AD
S31508001DC018465DF8044B7047184670470048704738
S31508001DD000E8F11F0C20704710B5FFF7F7FF04461F
S31508001DE0FFF7F8FF01462046FFF7DAFF10BD0000AF
S31508001DF008B500221049114805F01AFF80B91049A4
S31508001E000E4805F02CFF70B90E490C4806F082FD05
S31508001E1060B90A4805F02AFF58B903F0C9FD08BD9C
S31508001E20FFF70AF8EBE7FFF707F8EDE7FFF704F81F
S31508001E30EFE7FFF701F8F0E710000020FC24002088
S31508001E406C0000200000002012230B800048704719
S31508001E502C00002004230B80004870474000002017
S31508001E600023934216D230B40BE0373401F81340FE
S31508001E7000015C00013400250D550133DBB29342A5
S31508001E8006D2040F092CF0D8303401F81340EFE7D6
S31508001E9030BC70477047000038B50A4B18680433E1
S31508001EA01C6804331B68C01800D138BD064D0822CB
S31508001EB0A91CFFF7D5FF042205F112012046FFF7FA
S31508001EC0CFFFF2E700E8F11F4400002008B51A2307
S31508001ED00B80FFF7E1FF014808BD00BF4400002062
S31508001EE008B50A4628B10549054806F06AFB0348BD
S31508001EF008BD0249024806F064FBF8E7C02700203F
S31508001F00B803002010B5044C0A462146034806F0DB
S31508001F1058FB204610BD00BFC0270020A4030020A0
S31508001F2008B50A4628B10549054806F04AFB03489C
S31508001F3008BD0249024806F044FBF8E7C02700201E
S31508001F408803002008B50A4628B10549054806F061
S31508001F5038FB034808BD0249024806F032FBF8E799
S31508001F60C027002094030020F0B589B0002303930E
S31508001F70049305930693079302681F4B9A4201D070
S31508001F8009B0F0BD1D4CD4F8E03043F00103C4F8A5
S31508001F90E030D4F8E03003F001030193019B08AE6A
S31508001FA04FF4007346F8143D154F3146384603F092
S31508001FB0C7FB4FF4C05303930223049300250595EA
S31508001FC006950A2307933146384603F0B9FBD4F839
S31508001FD0D83043F00063C4F8D830D4F8D83003F0CA
S31508001FE000630293029B2A462946652003F0FAFC01
S31508001FF0652003F027FDC3E70000084000440258A7
S315080020000000025808B500F57171D0F8040405F00F
S3150800201046FE08BD08B5C1EBC10293000344D3F8D8
S315080020200822D0F8040405F067FE08BD08B5C1EB20
S31508002030C102930003449A6CD0F8040405F0A6FE86
S3150800204008BD08B5D0F8040405F04BFF08BD10B567
S315080020500446C3682BB1022B0DD0FEF7EDFE012115
S3150800206000E00021D4F8040405F024FFD4F80404A1
S3150800207005F0F8FE10BD0121F4E7000010B504468E
S31508002080D0F8040405F019FF2268D2F8003E43F0A0
S315080020900103C2F8003E236A23B1034A136943F0D9
S315080020A00603136110BD00BF00ED00E008B5D0F8C7
S315080020B0040405F00BFF08BD08B5D0F8040405F0C4
S315080020C020FF08BD08B5D0F8040405F018FF08BDC0
S315080020D008B5D0F8040405F016FF08BD08B5D0F811
S315080020E0040405F012FF08BD03780BB10020704701
S315080020F010B503461548C0F80434C3F8C002144B9B
S315080021000360092343600222C260002303618261DF
S31508002110C3610362436283620122C262036300F001
S31508002120EBF880B9094C8021204600F044FE402295
S315080021300021204600F01BFE80220121204600F0E7
S3150800214016FE002010BDFEF777FEEBE7C02900203B
S3150800215000000840D0F8C03211F0800F08D101F015
S315080021607F01C1EBC1018A00134493F8FE01704751
S3150800217001F07F01C1EBC1018A00134493F83E00C8
S31508002180704708B5D0F8C00200F046FD08BD18B182
S31508002190022803D0022070470020704701207047AC
S315080021A008B5D0F8C00200F03FF9FFF7F0FF08BD08
S315080021B010B51C4613462246D0F8C00200F086FC2D
S315080021C0FFF7E5FF10BD08B5D0F8C00200F0BFFC68
S315080021D0FFF7DDFF08BD08B5D0F8C00200F04FFDD7
S315080021E0FFF7D5FF08BD08B5D0F8C00200F088FD96
S315080021F0FFF7CDFF08BD08B5D0F8C00200F052FCC5
S31508002200FFF7C5FF08BD08B5D0F8C00200F00DFD00
S31508002210FFF7BDFF08BD08B5D0F8C00200F0CEFC38
S31508002220FFF7B5FF08BD2DE9F04782B0D0F800806A
S31508002230CA00521A930003445A6D1B6D9A4255D828
S31508002240C1469B1AC1EBC104A2000244526C9342D8
S3150800225000D81A460C46074602F1030A4FEA9A0ABC
S3150800226015E006F1030A4FEA9A0AE3001B1B9D00D4
S315080022703D44A96C3B7C0093B3B2E2B2404601F000
S31508002280F3F8AB6C3344AB646B6D1E446E6509EBB7
S31508002290441303F510639B699BB29A4512D8E30071
S315080022A01B1B9A003A44516D136D99420AD24BB1E1
S315080022B05B1AC4EBC4018A003A44566CB342D0D8C0
S315080022C01E46CEE7E3001B1B980007443A6D7B6D5C
S315080022D09A420FD804F00F040123A340D8F83448D3
S315080022E024EA0304C8F83448002000E0012002B0BC
S315080022F0BDE8F0870020FAE7F0B58BB0002800F0BB
S3150800230091800446056890F8BD3323B3032384F807
S31508002310BD33EB6B13F4807F01D100232361206862
S3150800232000F044FE254655F8107B6E460FCD0FC6C5
S315080023300FCD0FC695E8030086E80300231D0ECBD4
S31508002340384600F071FD58B1022384F8BD330125E3
S3150800235028460BB0F0BD80F8BC33FFF705FED5E77D
S315080023600021206800F028FE002315E0D900C81ACD
S3150800237082002244012082F83D0082F83C30A2F80F
S315080023804230002082F83F0050649064CA1A9100D7
S31508002390214408650133DBB26568AB42E6D3002306
S315080023A015E0D800C11A8A002244002182F8FD11DE
S315080023B082F8FC3182F8FF11C2F80412C2F808123A
S315080023C0C21A90002044C0F810120133DBB29D42B5
S315080023D0E7D8254655F8107B6E460FCD0FC60FCDAC
S315080023E00FC695E8030086E80300231D0ECB384682
S315080023F000F028FE054660B9002384F8383001232A
S3150800240084F8BD33636A012B08D0206801F0D7F938
S315080024109EE7022384F8BD33012599E7204600F09C
S31508002420CFFCF2E7012593E7026890F8BC33012B4D
S3150800243019D010B5012380F8BC33836A012B0AD062
S315080024400446006801F0AFF9206800F0A9FD0020F5
S3150800245084F8BC0310BD8369012BF1D0936B43F458
S3150800246080339363ECE702207047000070B504469A
S315080024700D460068066C00EB411303F53063996856
S315080024802269012A11D0374A964254D03DB9C5EB84
S31508002490C50293002344D3F81032002B5CD0E9B26E
S315080024A02046FFF7B7FD002070BD11F0080F09D0D0
S315080024B02D4A9642F7D911F4004FF4D04FF4004252
S315080024C09A60F0E711F0200F28D111F0280FEAD111
S315080024D0254A964202D911F4004F22D1E900491B38
S315080024E08A002244D2F804121B69C3F31203C91ADC
S315080024F0C2F81412D2F80412D2F808320B44C2F801
S31508002500083235B9C5EBC50293002344D3F8103217
S315080025105BB1E9B22046FFF77DFDC4E720229A6049
S31508002520C1E74FF400429A60BDE704F571720121D4
S3150800253001F096F9EDE711F4004F09D111F0200FDB
S3150800254001D020229A60E9B22046FFF763FDAAE788
S315080025504FF400429A60A6E704F57172002101F073
S315080025607FF99CE70A31544F0A30544F38B5044670
S3150800257003681D6C03EB4111D1F8082B0E4B9D42E5
S3150800258007D901F5306112F4004F02D04FF4004329
S315080025908B602046FFF736FD074B9D4202D923691B
S315080025A0012B01D0002038BD04F571720121206885
S315080025B001F056F9F6E700BF0A30544F2DE9F84FF7
S315080025C004460568284601F036F908B1BDE8F88FD3
S315080025D02F460646206801F0FEF80028F6D0206847
S315080025E001F0F9F810F0020F04D02268536903F0DD
S315080025F002035361206801F0EEF810F0100F15D0B1
S315080026002268936923F010039361D5F8208008F0B7
S315080026100F09C8F34343022B00F08580062B00F010
S31508002620A5802268936943F010039361206801F03E
S31508002630D2F810F4002F40F0AD80206801F0CBF8F6
S3150800264010F4802F40F0F180206801F0C4F80028CB
S31508002650C0F25F81206801F0BEF810F4006F0AD05E
S31508002660D5F8083813F0010F40F06D8122685369D8
S3150800267003F400635361206801F0ADF810F0006FB1
S3150800268015D02268536903F00063536194F8F43354
S31508002690002B40F05C81012184F8F41323685B6DFC
S315080026A0C3F38303C4F8F833204600F09DFB206883
S315080026B001F091F810F4805F40F04D81206801F038
S315080026C08AF810F4005F40F0AB81206801F083F8C7
S315080026D010F0080F40F0BC81206801F07CF810F477
S315080026E0801F40F0BE81206801F075F810F4001FC5
S315080026F040F0C181206801F06EF810F0804F40F07C
S31508002700C481206801F067F810F0040F3FF45EAF4B
S3150800271023685D6815F0040F40F0C08123685A6885
S3150800272015435D6052E747F6F07318EA030F3FF466
S3150800273078AF4FEAC90BABEB09034FEA830AA24409
S315080027404FEA1818C8F30A02DAF80812284600F001
S31508002750ABFFC8F30A08DAF808324344CAF8083265
S31508002760DAF814324344CAF814325AE7082204F550
S315080027707171284600F098FFC8F30A184FEAC90392
S31508002780A3EB09018A002244D2F814324344C2F862
S31508002790143246E7206801F022F88046B14617E071
S315080027A007EB49130122C3F8082B49462046FFF7D1
S315080027B05DFE1DE007EB49130822C3F8082B4946BE
S315080027C02046FFF7D3FE16E009F101094FEA58083B
S315080027D0B8F1000F3FF431AF18F0010FF4D05FFAEB
S315080027E089F1206801F00BF8824610F0010FD7D165
S315080027F01AF0080FDED11AF0100F04D007EB4913B0
S315080028001022C3F8082B1AF0200F04D007EB49133F
S315080028102022C3F8082B1AF4005FD5D007EB49131A
S315080028204FF40052C3F8082BCEE7206800F0DFFF0C
S315080028308046B1462AE059462046FFF7F7FB1AF0CC
S31508002840080F04D007EB49130822C3F808291AF021
S31508002850100F04D007EB49131022C3F808291AF001
S31508002860400F04D007EB49134022C3F808291AF091
S31508002870020F04D007EB49130222C3F808291AF0FD
S31508002880800F41D109F101094FEA5808B8F1000F44
S315080028903FF4DAAE18F0010FF4D05FFA89FB594617
S315080028A0206800F0B5FF824610F0010FC7D009F086
S315080028B00F03012101FA03F2D7F8343823EA020399
S315080028C0C7F8343807EB4913C3F8081923698B424C
S315080028D0B1D14FEAC902A2EB090293002344596C0D
S315080028E09A6C0A449A64B9F1000FA4D1C9EBC902DB
S315080028F0930023441B6D002B9DD104F571720121B1
S31508002900206800F0ADFF96E749462046FFF78BFCA6
S31508002910B8E7D5F8043823F00103C5F8043894F865
S31508002920F433012B08D02046FFF7C0FB2268536911
S3150800293003F0004353618DE6002184F8F413204622
S3150800294000F052FAF2E72046FFF798FB8EE620469B
S31508002950FFF794FBABE605F50068D8F8043023F0DA
S315080029600103C8F804301021206800F03DFB20E080
S3150800297007EB46134FF67F31C3F80819D3F8002939
S3150800298022F40012C3F80029D3F8002942F00062A5
S31508002990C3F80029C3F8081BD3F8002B22F4001249
S315080029A0C3F8002BD3F8002B42F00062C3F8002BC3
S315080029B0013663689E42DBD3D8F81C3043F0011316
S315080029C0C8F81C30236BEBB1D8F8843043F00B03FE
S315080029D0C8F88430D8F8443043F00B03C8F84430BC
S315080029E0D5F8003823F4FE63C5F8003804F571728B
S315080029F0217C206800F034FF2268536903F4805371
S31508002A0053615BE6D8F8142042F22B031343C8F847
S31508002A101430D8F8103043F00B03C8F81030DFE74D
S31508002A20206800F00DFF206800F0D0FBE060256804
S31508002A3001F07EFC227B0146284600F03BFA204640
S31508002A40FFF705FB2268536903F4005353613CE61C
S31508002A502046FFF7F6FA2268536903F00803536124
S31508002A603AE600212046FFF72DFB2268536903F456
S31508002A708013536137E600212046FFF71DFB2268C5
S31508002A80536903F40013536134E62046FFF720FB2D
S31508002A902268536903F08043536132E62046FFF704
S31508002AA01DFB3BE690F8BC33012B01D10220704791
S31508002AB010B50446012380F8BC3380F83810006846
S31508002AC000F061FE002084F8BC0310BDF8B511F0D3
S31508002AD0800F1ED101F00F06F500AF1BBC0027467C
S31508002AE004F5FC74044404343E460644002586F87E
S31508002AF0FD5101F00F012170A260E370627802B106
S31508002B00E180022B14D090F8BC33012B13D102209C
S31508002B10F8BD01F00F06F500AF1BBC002746383498
S31508002B20044404343E460644012586F83D50E0E751
S31508002B3000232371E7E70546012380F8BC332146C5
S31508002B40006800F053FB002085F8BC03F8BD38B5D3
S31508002B5011F0800F17D101F00F04E200151BAB002E
S31508002B601D4603F5FC73034404332C460444002233
S31508002B7084F8FD2101F00F01197090F8BC23012A91
S31508002B8010D1022038BD01F00F04E200151BAB007E
S31508002B901D463833034404332C460444012284F882
S31508002BA03D20E7E70446012280F8BC231946006861
S31508002BB000F064FB002084F8BC0338BD70B501F052
S31508002BC00F05EE00711B8C0004F5FC740444211DEE
S31508002BD0761BB4000444C4F80822C4F81032002353
S31508002BE0C4F8143284F8FD3184F8FC510369012BCA
S31508002BF006D065B1DAB2006800F04AFC002070BD64
S31508002C00C5EBC506B4000444C4F80C22F1E7DAB2F1
S31508002C10006800F09DFBF1E701F00F01C1EBC1016F
S31508002C208B001844D0F81402704770B501F00F05F0
S31508002C30EE00711B8C0038340444211D761BB40049
S31508002C400444A264236500236365012384F83D30A8
S31508002C5084F83C500369012B06D05DB1DAB20068EE
S31508002C6000F016FC002070BDC5EBC506B400044490
S31508002C70E264F2E7DAB2006800F06AFBF2E738B518
S31508002C8001F00F0543689D4238D811F0800F15D121
S31508002C90CA00541AA3001C4603F5FC730344043304
S31508002CA022460244002182F8FD1101229A701D7005
S31508002CB090F8BC23012A0DD1022038BDEA00511B29
S31508002CC08B0019463833034404330144012281F842
S31508002CD03D20EAE70446012280F8BC23194600682D
S31508002CE000F0F6FC1DB1002084F8BC0338BD04F5DD
S31508002CF07172217C206800F0B3FDF4E7012038BD2D
S31508002D0001F00F03426893422FD810B511F0800FD7
S31508002D1014D1DA00D41AA1000C4601F5FC7101445D
S31508002D2004310444002284F8FD2100228A700B70C5
S31508002D3090F8BC33012B0DD1022010BDDA00D41A4D
S31508002D40A1000C463831014404310444012284F8B8
S31508002D503D20EAE70446012380F8BC33006800F00A
S31508002D60E4FC002084F8BC0310BD0120704730B491
S31508002D700468606A29B10D46A36A00EB1340002374
S31508002D800CE040EA0240A06212E003F1400104EBC5
S31508002D908101496800EB11400133DBB2691E8B42A1
S31508002DA0F3D340EA024005F13F0104EB8101486094
S31508002DB0002030BC70470368596200207047000045
S31508002DC0024603680121C0F8FC13002082F8F403C8
S31508002DD09A6942F000629A61596D024A0A435A6535
S31508002DE0704700BF0300001070470000002301333E
S31508002DF00C4A934211D80269002AF8DA036943F0AB
S31508002E000103036100230133064A934207D8026986
S31508002E1012F0010FF7D100207047032070470320F6
S31508002E20704700BF400D030084B010B5044603A8E0
S31508002E3080E80E00089B012B0DD0E36843F04003A1
S31508002E40E3602046FFF7D2FF0C9B13BBA36B43F44A
S31508002E508033A36311E0A36B23F48033A363E26892
S31508002E60134B1340E360E36823F44013E3600F9BBE
S31508002E70012B09D02046FFF7B9FF069B012B0DD081
S31508002E80BDE8104004B07047E36843F48013E3607C
S31508002E90F0E7A36B23F48033A363EEE7A36843F05C
S31508002EA00603A360A36843F02003A360E8E700BF16
S31508002EB0BFFFBDFF022A0AD00921C26822F4705258
S31508002EC0C260C36843EA8123C36000207047274B6A
S31508002ED00B44274A934239D9264B0B44264A934238
S31508002EE036D9264B0B44264A934233D9254B0B44F5
S31508002EF002F5C332A03293422ED9234B0B44234A00
S31508002F0093422BD9224B0B4402F5922202F5787292
S31508002F10934225D91F4B0B4402F5C32202F52072B2
S31508002F2093421FD91C4B0B4402F5B71202F558728F
S31508002F30934219D9194B0B4402F5122202F5F8628D
S31508002F40934201D90621B8E70721B6E70F21B4E76E
S31508002F500E21B2E70D21B0E70C21AEE70B21ACE755
S31508002F600A21AAE70921A8E70821A6E7405327FF6F
S31508002F70FF340C00401E1BFF3F420F0000DC0BFF16
S31508002F807F4F1200808CF9FE60B6E5FE5FE31600FF
S31508002F9000D3CEFEC05BB3FE00CA91FEE05459FED4
S31508002FA0836843F00103836000207047836823F039
S31508002FB0010383600020704708B5C36823F0C04347
S31508002FC0C360012909D069B9C36843F08043C36067
S31508002FD0322002F0C3FD002008BDC36843F0005349
S31508002FE0C360F5E7012008BD890141F020010161B0
S31508002FF000230133054A934205D8026912F0200FCF
S31508003000F7D1002070470320704700BF400D03002A
S315080030101023036100230133054A934205D8026948
S3150800302012F0100FF7D1002070470320704700BF39
S31508003030400D0300D0F800381943C0F800180020E6
S315080030407047000084B02DE9F041044607A880E8DF
S315080030500E002546002306E003F1400204EB820237
S315080030600021516001330E2BF6D9119BA3BBD4F86E
S31508003070043843F00203C4F80438A36B23F400139E
S31508003080A363236843F040032360236843F0800367
S3150800309023600023C4F8003E04F50066D4F800381F
S315080030A0C4F800380C9B012B1BD003212046FFF7E0
S315080030B0C1FF10212046FFF797FF804608B14FF061
S315080030C001082046FFF7A4FF08B14FF001080023C6
S315080030D033617361F3611BE0A36B43F40013A363CD
S315080030E0D7E7099B23B900212046FFF7A3FFE0E7AE
S315080030F001212046FFF79EFFDBE7C3B94FF00060CA
S31508003100C2F8000900220A614FF67F328A6001334D
S3150800311007998B4210D205EB431202F51061D2F8DB
S3150800312000090028E9DB0020C2F80009EAE74FF0A9
S315080031309040C2F80009E5E700230AE0BBB14FF06A
S315080031409047C2F8007B002202614FF67F32826008
S3150800315001338B4210D205EB431202F53060D2F8E8
S31508003160007B002FEADB0027C2F8007BEBE74FF075
S315080031700067C2F8007BE6E7336923F4807333619E
S315080031800023A3616FF0804363610A9B1BB9A3699F
S3150800319043F01003A361A2690A4B1343A3610D9B75
S315080031A01BB1A36943F00803A361119B012B04D04B
S315080031B04046BDE8F04104B07047A269024B13438C
S315080031C0A361F5E700383C8004000040D0F80838D1
S315080031D013F0060305D0062B18BF022B03D10220D5
S315080031E07047002070470F207047000070B40B78B6
S315080031F04A78012A20D0D0F81C2803F00F060124AB
S31508003200B44042EA0442C0F81C2800EB4310D0F848
S31508003210003B13F4004F0CD1D0F8002B8B68C3F396
S315080032200A03C97843EA81431343134A1A43C0F889
S31508003230002B002070BC7047D0F81C4803F00F061E
S31508003240B24092B22243C0F81C2800EB4310D0F8D3
S31508003250002912F4004FECD1D0F800498A68C2F36D
S315080032600A02C97842EA814242EA83532343024A60
S315080032701A43C0F80029DCE70080001070B40B7808
S315080032804A78012A23D0D0F83C5803F00F060124C7
S3150800329004FA06F625EA0645C0F83C58D0F81C5844
S315080032A0097801F00F018C4025EA0444C0F81C484F
S315080032B000EB4310D0F8003B002B38DBD0F8002B8E
S315080032C0214B1340C0F8003B002070BC7047D0F873
S315080032D03C6803F00F0402FA04F4A4B226EA0404D4
S315080032E0C0F83C48D0F81C48097801F00F018A401C
S315080032F092B224EA0202C0F81C2800EB4310D0F868
S315080033000039002B06DBD0F80029104B1340C0F813
S315080033100039D9E7D0F8003943F00063C0F800391E
S31508003320D0F8003943F08043C0F80039EBE7D0F80D
S31508003330003B43F00063C0F8003BD0F8003B43F085
S315080033408043C0F8003BB9E70078F3EF007833EC28
S3150800335070B40B784C78012C24D000EB431000F5A0
S3150800336030631D693E4C2C401C611D693D4C2C4048
S315080033701C614C690CB18C684C611C6944F40024CE
S315080033801C611C698D68C5F312052C431C61012A52
S3150800339061D0D0F8003B43F00443C0F8003B00205E
S315080033A070BC70474C695CBB00EB4314D4F81069D9
S315080033B02C4D3540C4F81059D4F8105945F4002559
S315080033C0C4F81059D4F81069254D3540C4F8105979
S315080033D0012A31D000EB4313D3F8002942F0044206
S315080033E0C3F800294B69002BD9D0D0F834280978BE
S315080033F001F00F040121A1400A43C0F83428CEE7A2
S3150800340000EB431404F510642669154D3540256113
S315080034102669144D354025614E698D68AE4200D93E
S315080034204D61256945F40025256125694E69C6F370
S31508003430120635432561CBE70A691AB100EB431139
S31508003440C1F8142900EB4310D0F8002942F00442D1
S31508003450C0F80029A3E7CA68002A9AD05A6198E7F3
S315080034600000F8FFFFFF07E070B49DF80C4064B950
S3150800347003339E0807E000EB023303F5805351F847
S31508003480045B1D600134B442F5D3002070BC70475C
S31508003490F0B583B00C784B78012B29D000EB441497
S315080034A004F530631E697D4D35401D611E697C4DEE
S315080034B035401D614D69002D40F0C1801D698E683B
S315080034C0C6F3120635431D611D6945F400251D61C5
S315080034D0012A00F0C980CB78012B00F0CB80D4F804
S315080034E0003B43F00443C4F8003B002003B0F0BDA2
S315080034F04B6973BB00EB4413D3F81069684D35402C
S31508003500C3F81059D3F8105945F40025C3F81059D3
S31508003510D3F81069614D3540C3F81059012A4AD0CD
S3150800352000EB4414D4F8003943F00443C4F80039D6
S31508003530CB78012B68D04B69002BD6D0D0F834381D
S315080035400A7802F00F0101228A401343C0F8343882
S31508003550CBE700EB4413D3F81069504D3540C3F858
S315080035601059D3F810694E4D3540C3F81059D3F8A1
S3150800357010694D698F683D44013DB5FBF7F5494F24
S3150800358007EAC5453543C3F81059D3F810594E69AB
S31508003590C6F312063543C3F8105903F51063CD7800
S315080035A0012DBBD11D6925F0C0451D611D6945F07A
S315080035B000551D61B2E70B691BB100EB4412C2F856
S315080035C01439CB78012B08D000EB4414D4F8003911
S315080035D043F00443C4F8003987E7D0F8083813F4F1
S315080035E0807F08D100EB4412D2F8003943F000532B
S315080035F0C2F80039E8E700EB4412D2F8003943F084
S315080036008053C2F80039DFE7D0F8083813F4807F12
S315080036100ED1D4F8003943F00053C4F800391446E3
S315080036200B46C9681A789B8A0094FFF71DFF5CE76A
S31508003630D4F8003943F08053C4F80039EFE78E68B0
S315080036403544013DB5FBF6F51E69164F07EAC54731
S315080036503E431E611F698E68ADB206FB05F5C5F3CC
S3150800366012053D431D6133E7CA68002A3FF433AFAC
S315080036705A6130E7D0F8083813F4807F06D1D4F8B9
S31508003680003B43F00053C4F8003B28E7D4F8003B5E
S3150800369043F08053C4F8003B21E700BF0000F8FF61
S315080036A0FFFF07E00000F81F033292080023934249
S315080036B00CD210B400F58054246841F8044B013349
S315080036C09342F7D308465DF8044B7047084670479F
S315080036D00B784A78012A14D000EB4310D0F8002B57
S315080036E0002A06DB2BB1D0F8003B23F08043C0F854
S315080036F0003BD0F8003B43F40013C0F8003B002021
S31508003700704700EB4310D0F80029002A06DB2BB1DE
S31508003710D0F8003923F08043C0F80039D0F80039D2
S3150800372043F40013C0F80039E9E70B784A78012A10
S315080037300ED000EB4310D0F8003B23F40013C0F87A
S31508003740003BCB78023BDBB2012B15D90020704732
S3150800375000EB4310D0F8003923F40013C0F8003901
S31508003760CB78023BDBB2012BF0D8D0F8003943F016
S315080037708053C0F80039E9E7D0F8003B43F080539E
S31508003780C0F8003BE2E7D0F8003823F4FE63C0F83F
S315080037900038D0F80038090101F4FE610B43C0F87F
S315080037A000380020704708B5D0F8043823F0020323
S315080037B0C0F80438032002F0D1F9002008BD08B586
S315080037C0D0F8043843F00203C0F80438032002F0A6
S315080037D0C5F9002008BD4269806910407047D0F8D5
S315080037E0183800F50060C0691840000C7047D0F81A
S315080037F0183800F50060C069184080B2704700EBC1
S315080038004111D1F8082B00F5006040691040704757
S3150800381010B4D0F81028D0F8343801F00F04E3407B
S31508003820DB01DBB2134300EB4111D1F8080918405C
S315080038305DF8044B7047406900F0010070470000CE
S31508003840D0F80029054B1340C0F80039D0F80438E1
S3150800385043F48073C0F804380020704700F8FFFF6F
S3150800386010B4046C154B9C4203D9D0F8003B002BCE
S3150800387016DB0024C0F8104BD0F8104B44F4002493
S31508003880C0F8104BD0F8104B44F01804C0F8104B91
S31508003890D0F8104B44F0C044C0F8104B012903D0AF
S315080038A000205DF8044B7047C0F8142BD0F8003B95
S315080038B043F08023C0F8003BF2E700BF0A30544FBC
S315080038C0002800F0E88238B50446036813F0010FB3
S315080038D036D0AA4A136903F03803926A102B26D009
S315080038E0182B20D06368B3F5803F4ED0002B52D1F9
S315080038F0A24B1A6822F480321A601A6822F48022CF
S315080039001A606368002B5DD002F022F905469B4BCE
S315080039101B6813F4003F13D102F01AF9401B642800
S31508003920F5D9032038BD02F00302022ADAD1934BF7
S315080039301B6813F4003F03D06368002B00F0AD82C8
S31508003940236813F0020F66D08C4A1369926A13F043
S31508003950380349D0182B44D0E368002B00F0A18027
S3150800396086490A6822F0190213430B6002F0F0F840
S315080039700546824B1B6813F0040F7AD102F0E8F86B
S31508003980401B0228F5D9032038BD7C4A136843F446
S3150800399080331360B5E7B3F5A02F09D0774B1A68C3
S315080039A022F480321A601A6822F480221A60A8E784
S315080039B0724B1A6842F480221A601A6842F48032FE
S315080039C01A609EE702F0C4F805466C4B1B6813F4B0
S315080039D0003FB5D002F0BCF8401B6428F5D9032097
S315080039E038BD12F0030FB7D1644B1B6813F0040FF0
S315080039F003D0E368002B00F0528202F0C3F841F2CC
S31508003A00030398422CD85D4A536823F47C33216912
S31508003A1043EA01335360236813F0100F71D0574AF5
S31508003A20136903F03803926A082B52D0182B4CD02E
S31508003A30E369002B00F0A480504A136843F0800322
S31508003A40136002F085F805464C4B1B6813F4807F1B
S31508003A507BD102F07DF8401B0228F5D9032038BD3A
S31508003A60464A536823F0FE43216943EA01635360DB
S31508003A70D1E702F087F841F20303984208D83F4A93
S31508003A80536823F47C33216943EA01335360C2E760
S31508003A903A4A536823F0FE43216943EA01635360B7
S31508003AA0B9E7364A136823F00103136002F050F8A9
S31508003AB00546324B1B6813F0040FACD002F048F8E9
S31508003AC0401B0228F5D9032038BD02F00302012A5B
S31508003AD0AED12A4B1B6813F4807F04D0E369802B90
S31508003AE001D0012038BD02F04DF841F20303984297
S31508003AF022D8224A536823F0F843216A43EA8163AD
S31508003B005360236813F0080F62D06369002B4BD00B
S31508003B101A4A536F43F00103536702F019F8054632
S31508003B20164B5B6F13F0020F52D102F011F8401BCF
S31508003B300228F5D9032038BD104AD36823F07C53F0
S31508003B40216A43EA0163D360DBE702F01BF841F21E
S31508003B500303984208D8094A536823F0F843216AB0
S31508003B6043EA81635360CCE7044AD36823F07C5365
S31508003B70216A43EA0163D360C3E700BF00440258E1
S31508003B80AD4A136823F08003136001F0E1FF054690
S31508003B90A94B1B6813F4807FB3D001F0D9FF401BF3
S31508003BA00228F5D9032038BDA34A536F23F0010331
S31508003BB0536701F0CDFF05469F4B5B6F13F0020F6D
S31508003BC006D001F0C5FF401B0228F5D9032038BDF1
S31508003BD0236813F0200F29D0A3699BB1964A13686E
S31508003BE043F48053136001F0B3FF0546924B1B68FC
S31508003BF013F4005F1AD101F0ABFF401B0228F5D978
S31508003C00032038BD8C4A136823F48053136001F0EF
S31508003C109FFF0546884B1B6813F4005F06D001F02A
S31508003C2097FF401B0228F5D9032038BD236813F0F7
S31508003C30040F21D1636A002B00F033817E4A126992
S31508003C4002F03802182A00F0EA80022B75D07A4A68
S31508003C50136823F08073136001F07AFF0446764BED
S31508003C601B6813F0007F00F0D88001F071FF001B7D
S31508003C700228F4D9032038BD704A136843F48073C8
S31508003C80136001F065FF05466C4B1B6813F4807FD3
S31508003C9006D101F05DFF401B6428F5D9032038BD25
S31508003CA0A368012B1CD00BBB634B1A6F22F00102D1
S31508003CB01A671A6F22F004021A67A36863B301F041
S31508003CC047FF05465C4B1B6F13F0020FB2D101F09C
S31508003CD03FFF401B41F288339842F3D9032038BD91
S31508003CE0554A136F43F001031367E6E7052B09D01E
S31508003CF0514B1A6F22F001021A671A6F22F004025A
S31508003D001A67DAE74C4B1A6F42F004021A671A6F01
S31508003D1042F001021A67D0E701F01AFF0546464B42
S31508003D201B6F13F0020F85D001F012FF401B41F202
S31508003D3088339842F3D9032038BD3F4A136823F0E5
S31508003D408073136001F004FF05463B4B1B6813F0B4
S31508003D50007F06D001F0FCFE401B0228F5D903209F
S31508003D6038BD354B996A364A0A40A16AE06A41EA83
S31508003D7000110A439A62226B013AC2F30802616B88
S31508003D800139490289B20A43A16B0139090401F4D0
S31508003D90FE010A43E16B0139090601F0FE410A43B7
S31508003DA01A63DA6A22F00102DA62596B254A0A4076
S31508003DB0A16C42EAC1025A63DA6A22F00C02216C4B
S31508003DC00A43DA62DA6A22F00202616C0A43DA62AC
S31508003DD0DA6A42F48032DA62DA6A42F40032DA6285
S31508003DE0DA6A42F48022DA62DA6A42F00102DA62B8
S31508003DF01A6842F080721A6001F0AAFE04460E4B59
S31508003E001B6813F0007F06D101F0A2FE001B0228F2
S31508003E10F5D9032038BD002038BD002038BD064A34
S31508003E20916A106B012B3ED001F00303A26A9342FC
S31508003E300AD0012038BD00BF004402580048025885
S31508003E400CFCFFFF0700FFFFC1F30511E36A994267
S31508003E5001D0012038BDC0F30802236B013B9A420A
S31508003E6001D0012038BDC0F34622636B013B9A425C
S31508003E7001D0012038BDC0F30642A36B013B9A422C
S31508003E8001D0012038BDC0F30660E36B013B9842C0
S31508003E900BD0012038BD01207047012038BD012014
S31508003EA038BD002038BD012038BD002038BD00BF10
S31508003EB0744B1B6903F03803102B00F0DF80182BB6
S31508003EC011D00BB1704870476E4B1B6813F0200F6A
S31508003ED001D16E4870476B4B1868C0F3C1006B4B35
S31508003EE023FA00F0704710B4664A916A01F003019C
S31508003EF0906AC0F30510D46A04F00104536BC3F347
S31508003F00CC0303FB04F307EE903AF8EE677A002831
S31508003F1000F09480012966D0F9B1022900F0918059
S31508003F2007EE100AF8EE476A9FED596A86EE267A7A
S31508003F30544B1B6BC3F3080306EE903AF8EE666A19
S31508003F409FED546A67EE867A76EEA77AF7EE006AF0
S31508003F5077EEA67A27EE277A61E04A4B1B6813F0BC
S31508003F60200F23D047490A68C2F3C102474BD34002
S31508003F7007EE103AF8EE476A07EE100AB8EE476AF7
S31508003F8086EE867A0B6BC3F3080306EE903AF8EED4
S31508003F90666A9FED406A67EE867A76EEA77AF7EE4E
S31508003FA0006A77EEA67A27EE277A38E007EE100A37
S31508003FB0F8EE476A9FED386A86EE267A314B1B6B18
S31508003FC0C3F3080306EE903AF8EE666A9FED316A87
S31508003FD067EE867A76EEA77AF7EE006A77EEA67A25
S31508003FE027EE277A1BE007EE100AF8EE476A9FEDE0
S31508003FF0286A86EE267A234B1B6BC3F3080306EE64
S31508004000903AF8EE666A9FED236A67EE867A76EE50
S31508004010A77AF7EE006A77EEA67A27EE277A194B83
S315080040201B6BC3F34623013307EE903AF8EE677A23
S31508004030C7EE276AFCEEE67A17EE900A5DF8044B9F
S31508004040704707EE100AF8EE476A9FED146A86EE87
S31508004050267A0C4B1B6BC3F3080306EE903AF8EE70
S31508004060666A9FED0C6A67EE867A76EEA77AF7EEB1
S31508004070006A77EEA67A27EE277AD0E74FF4FA0099
S31508004080704700BF0044025800093D000090D00365
S315080040900024744A000000390024744C0000FA4ACF
S315080040A0002800F0358170B504469B4B1B6803F069
S315080040B00F038B420CD2984A136823F00F030B4365
S315080040C01360136803F00F03994201D0012070BDF5
S315080040D0236813F0040F0CD02269904B9B6903F0F8
S315080040E070039A4205D98D48836923F070031A43F1
S315080040F08261236813F0080F0CD06269874BDB696D
S3150800410003F070039A4205D98448C36923F0700303
S315080041101A43C261236813F0100F0CD0A2697F4BB3
S31508004120DB6903F4E0639A4205D97C48C36923F442
S31508004130E0631A43C261236813F0200F0CD0E269CA
S31508004140764B1B6A03F070039A4205D97348036AD3
S3150800415023F070031A430262236813F0020F0CD08F
S31508004160E2686E4B9B6903F00F039A4205D96B48C8
S31508004170836923F00F031A4382610D46236813F0FF
S31508004180010F41D0654A936923F47063A1680B4314
S3150800419093616368022B23D0032B27D0012B2CD0E5
S315080041A05E4A126812F0040F00F0B4805B490A698F
S315080041B022F0070213430B6101F0CAFC0646574B6F
S315080041C01B6903F038036268B3EBC20F1CD001F019
S315080041D0BFFC801B41F288339842F0D9032070BD9A
S315080041E0126812F4003FE1D1012070BD4B4A1268F3
S315080041F012F0007FDAD1012070BD484A126812F425
S31508004200807FD3D1012070BD236813F0020F0CD034
S31508004210E268424B9B6903F00F039A4205D23F4975
S315080042208B6923F00F031A438A613B4B1B6803F023
S315080042300F039D420CD2384A136823F00F032B4311
S315080042401360136803F00F039D4201D0012070BD6F
S31508004250236813F0040F0CD02269304B9B6903F0D6
S3150800426070039A4205D22D498B6923F070031A43CD
S315080042708A61236813F0080F0CD06269274BDB6943
S3150800428003F070039A4205D22449CB6923F07003E0
S315080042901A43CA61236813F0100F0CD0A2691F4B8A
S315080042A0DB6903F4E0639A4205D21C49CB6923F41F
S315080042B0E0631A43CA61236813F0200F0CD0E26941
S315080042C0164B1B6A03F070039A4205D213490B6A10
S315080042D023F070031A430A62FFF7EAFD0F498B6958
S315080042E0C3F303230E4AD35C03F01F03D8408B693C
S315080042F003F00F03D35C03F01F0320FA03F3094A04
S315080043001360094B1860094B186801F0BFFB70BDB4
S3150800431001207047012070BD002000520044025859
S31508004320D003002068000020640000206000002000
S3150800433008B5FFF7BDFD0B4A9369C3F303230A4982
S31508004340CB5C03F01F0320FA03F3926902F00F0215
S31508004350885C00F01F0023FA00F0044A1060044A43
S31508004360136008BD00440258D003002068000020EE
S315080043706400002008B5FFF7DBFF054BDB69C3F3D4
S315080043800213044AD35C03F01F03D84008BD00BFDC
S3150800439000440258D003002008B5FFF7C9FF054BB3
S315080043A0DB69C3F30223044AD35C03F01F03D84036
S315080043B008BD00BF00440258D0030020404B9B6A4A
S315080043C003F00303032B79D070B50E4605463C4A25
S315080043D0136823F08063136001F0BAFB0446384B78
S315080043E01B6813F0006F06D001F0B2FB001B022811
S315080043F0F5D9032070BD324B9A6A22F47C322968BB
S3150800440042EA01329A626A68013AC2F30802A96866
S315080044100139490289B20A43E9680139090401F4F4
S31508004420FE010A4329690139090601F0FE410A43DA
S315080044309A63DA6A22F0C00269690A43DA62DA6ABA
S3150800444022F02002A9690A43DA62DA6A22F0100227
S31508004450DA62D96B1B4A0A40E96942EAC102DA63A1
S31508004460DA6A42F01002DA62C6B91A46DB6A43F41F
S315080044700023D362124A136843F08063136001F085
S3150800448067FB04460E4B1B6813F0006F14D101F04E
S315080044905FFB001B0228F5D9032070BD012E05D04D
S315080044A0074AD36A43F40013D362E3E7044AD36A9C
S315080044B043F48013D362DDE7002070BD0120704706
S315080044C0004402580700FFFF404B9B6A03F00303B2
S315080044D0032B79D070B50E4605463C4A136823F07F
S315080044E08053136001F034FB0446384B1B6813F005
S315080044F0005F06D001F02CFB001B0228F5D903202B
S3150800450070BD324B9A6A22F07C72296842EA0152DF
S315080045109A626A68013AC2F30802A968013949022F
S3150800452089B20A43E9680139090401F4FE010A431C
S3150800453029690139090601F0FE410A431A64DA6A53
S3150800454022F4406269690A43DA62DA6A22F400727E
S31508004550A9690A43DA62DA6A22F48072DA62596C65
S315080045601B4A0A40E96942EAC1025A64DA6A42F415
S315080045708072DA62C6B91A46DB6A43F48003D362EC
S31508004580124A136843F08053136001F0E1FA0446B7
S315080045900E4B1B6813F0005F14D101F0D9FA001B0B
S315080045A00228F5D9032070BD012E05D0074AD36A23
S315080045B043F08073D362E3E7044AD36A43F4000303
S315080045C0D362DDE7002070BD012070470044025821
S315080045D00700FFFFF8B50446036813F0006F2BD0F9
S315080045E0436EB3F5801F19D010D9B3F5001F1BD041
S315080045F0B3F5401F1ED1002565BB9B4A136D23F4F6
S315080046004013616E0B4313652E4617E093B9964A1D
S31508004610D36A43F40033D3620025EDE70221043060
S31508004620FFF7CCFE0546E7E702212430FFF74CFFEB
S315080046300546E1E70125DFE700263546236813F43A
S31508004640807F27D0636D042B21D8DFE803F005139C
S31508004650190A0A002E46F1E7834AD36A43F400335F
S31508004660D362B5B9804A136D23F00703616D0B4316
S3150800467013650FE00021201DFFF7A0FE0546F0E7B1
S31508004680002104F12400FFF71FFF0546E9E701258D
S31508004690E7E72E46236813F4007F29D0A36D802B05
S315080046A01ED008D873B1402B0AD10021201DFFF770
S315080046B085FE05460BE0C02B09D0B3F5807F06D0F2
S315080046C0012504E0684AD36A43F40033D36275B916
S315080046D0654A136D23F4E073A16D0B43136507E078
S315080046E0002104F12400FFF7EFFE0546EFE72E460A
S315080046F0236813F4806F2ED0D4F8A430B3F5800F56
S3150800470021D009D883B1B3F5001F0BD10021201D94
S31508004710FFF754FE05460CE0B3F5C00F09D0B3F514
S31508004720000F06D0012504E04F4AD36A43F400334C
S31508004730D3627DB94C4A936D23F46003D4F8A41070
S315080047400B43936507E0002104F12400FFF7BCFE44
S315080047500546EEE72E46236813F4006F2ED0D4F8EC
S31508004760A830B3F1007F21D009D883B1B3F1807F97
S315080047700BD10021201DFFF721FE05460CE0B3F101
S31508004780407F09D0B3F1806F06D0012504E0364A90
S31508004790D36A43F40033D3627DB9334A936D23F069
S315080047A0E063D4F8A8100B43936507E0002104F1F1
S315080047B02400FFF789FE0546EEE72E46236813F028
S315080047C0007F20D0A36C102B08D004D9202B13D03F
S315080047D0302B08D000E033B1012504E0224AD36A21
S315080047E043F40033D3626DB91F4AD36C23F0300308
S315080047F0A16C0B43D36406E00221201DFFF7DEFD02
S315080048000546F0E72E46236813F4805F2FD0E36D44
S31508004810B3F5005F20D009D883B1B3F5805F0BD11B
S315080048200021201DFFF7CAFD05460CE0B3F5405FE1
S3150800483009D0B3F5804F06D0012504E00A4AD36AA9
S3150800484043F40033D3628DB9074A136D23F4E0436A
S31508004850E16D0B4313650AE0002104F12400FFF71C
S3150800486033FE0546EFE700BF004402582E4623688C
S3150800487013F4005F29D0236EB3F5003F1DD011D87D
S315080048803BB1B3F5803F16D10121201DFFF796FDF8
S315080048900546CDB9974A136D23F4E023216E0B43E1
S315080048A0136512E0B3F5802FF3D0B3F5A02FF0D03F
S315080048B0B3F5403FEDD00125EBE7012104F12400D3
S315080048C0FFF702FE0546E4E72E46236813F4804FF9
S315080048D02BD0D4F8AC30B3F1005F1ED012D83BB160
S315080048E0B3F1805F17D10121201DFFF767FD05464B
S315080048F0D5B9804A936D23F0E043D4F8AC100B4346
S31508004900936512E0B3F1804FF2D0B3F1A04FEFD028
S31508004910B3F1405FECD00125EAE7012104F1240058
S31508004920FFF7D2FD0546E3E72E46236813F4004F4A
S315080049301ED0E36EB3F1805F05D0B3F1005F10D0EF
S3150800494033B1012504E06B4AD36A43F40033D362DA
S315080049506DB9684A136D23F04053E16E0B43136536
S3150800496006E00121201DFFF729FD0546F0E72E4642
S31508004970236813F0807F1DD0636C032B17D8DFE8FC
S3150800498003F0070210075B4AD36A43F40033D36285
S315080049907DB9584AD36C23F00303616C0B43D36487
S315080049A008E00221201DFFF709FD0546F0E701256D
S315080049B0EEE72E46236813F4800F1FD1236813F001
S315080049C0010F00F09E80A36F282B00F29080DFE88D
S315080049D003F07E8E8E8E8E8E8E8E798E8E8E8E8E37
S315080049E08E8E878E8E8E8E8E8E8E7E8E8E8E8E8EF0
S315080049F08E8E7E8E8E8E8E8E8E8E7E003E4A1368AC
S31508004A0043F48073136001F0A3F807463A4B1B681A
S31508004A1013F4807F05D101F09BF8C01B6428F5D9F3
S31508004A200325002D4AD1334B1B6FD4F8B0205340D1
S31508004A3013F4407F0CD02F4B1A6F22F44072196F73
S31508004A4041F480311967196F21F4803119671A67A3
S31508004A50D4F8B030B3F5807F15D08DBBD4F8B0301C
S31508004A6003F44072B2F5407F1ED0224A136923F43C
S31508004A707C5313611F490B6FD4F8B020C2F30B02A5
S31508004A8013430B679AE701F063F80746194B1B6F48
S31508004A9013F0020FE1D101F05BF8C01B41F2883335
S31508004AA09842F3D90325D8E71248026922F47C52C2
S31508004AB0124901EA131313430361DBE72E467DE728
S31508004AC02E467BE70121201DFFF778FC0546BDB978
S31508004AD0084A536D23F03803A16F0B43536510E062
S31508004AE0012104F12400FFF7EFFC0546EFE7012555
S31508004AF0EDE700BF0044025800480258CFFFFF0008
S31508004B002E46236813F0020F1FD0636F052B19D8A2
S31508004B10DFE803F00803110808080121201DFFF744
S31508004B204DFC054685B9AA4A536D23F00703616F04
S31508004B300B43536509E0012104F12400FFF7C4FC87
S31508004B400546EFE70125EDE72E46236813F0040F27
S31508004B5021D0D4F89030052B1AD8DFE803F00803E3
S31508004B60120808080121201DFFF728FC05468DB903
S31508004B70974A936D23F00703D4F890100B43936577
S31508004B8009E0012104F12400FFF79EFC0546EEE743
S31508004B900125ECE72E46236813F0200F2BD0D4F816
S31508004BA08C30B3F1005F1ED012D83BB1B3F1805FF1
S31508004BB017D10021201DFFF701FC0546D5B9844A07
S31508004BC0536D23F0E043D4F88C100B43536512E081
S31508004BD0B3F1804FF2D0B3F1A04FEFD0B3F1405FFD
S31508004BE0ECD00125EAE7022104F12400FFF76CFC6A
S31508004BF00546E3E72E46236813F0400F2BD0D4F87A
S31508004C009830B3F5006F1ED012D83BB1B3F5806F5C
S31508004C1017D10021201DFFF7D1FB0546D5B96C4AEF
S31508004C20936D23F4E053D4F898100B43936512E080
S31508004C30B3F5805FF2D0B3F5A05FEFD0B3F5406F60
S31508004C40ECD00125EAE7022104F12400FFF73CFC39
S31508004C500546E3E72E46236813F0800F2BD0D4F8D9
S31508004C609C30B3F5804F1ED012D83BB1B3F5005F28
S31508004C7017D10021201DFFF7A1FB0546D5B9544AD7
S31508004C80936D23F46043D4F89C100B43936512E0AC
S31508004C90B3F5004FF2D0B3F5204FEFD0B3F5C04FC0
S31508004CA0ECD00125EAE7022104F12400FFF70CFC09
S31508004CB00546E3E72E46236813F0080F0CD0D4F810
S31508004CC08030B3F5805F27D0414A536D23F44053B3
S31508004CD0D4F880100B435365236813F0100F0CD0DB
S31508004CE0D4F89430B3F5807F1FD0394A936D23F4F6
S31508004CF04073D4F894100B439365236813F4002F7C
S31508004D0033D0D4F8A030B3F5803F26D0B3F5003FB2
S31508004D1019D09BB1012516E0022104F12400FFF702
S31508004D20D3FB0028D0D00126CEE7022104F12400C7
S31508004D30FFF7CAFB0028D8D00126D6E70021201D98
S31508004D40FFF73CFB05467DB9214A936D23F44033B2
S31508004D50D4F8A0100B43936507E0022104F1240060
S31508004D60FFF7B2FB0546EEE72E46236813F4802FBD
S31508004D7023D0D4F88430B3F5001F16D0B3F5401FFE
S31508004D8009D0B3F5801F01D0012504E0104AD36A83
S31508004D9043F40033D3627DB90D4A536D23F44013AF
S31508004DA0D4F884100B43536507E0012104F124006D
S31508004DB0FFF78AFB0546EEE72E46236813F4803F85
S31508004DC01DD0E36C33B1B3F5803F11D0012506E061
S31508004DD0004402583B4AD36A43F40033D3626DB9A0
S31508004DE0384AD36C23F48033E16C0B43D36406E072
S31508004DF00221201DFFF7E2FA0546F0E72E46236852
S31508004E0013F0005F0FD1236813F4003F26D0E36F39
S31508004E10B3F5807F13D00FD9B3F5007F14D0B3F55F
S31508004E20407F0AD110E0022104F12400FFF74CFB71
S31508004E300028E8D00126E6E733B1012504E0214A37
S31508004E40D36A43F40033D3623DB91E4A536D23F443
S31508004E504073E16F0B43536500E02E46236813F455
S31508004E60801F06D0174A136D23F00043216F0B43AA
S31508004E701365236813F4001F06D0124A136D23F036
S31508004E808073A16E0B431365236813F0804F09D016
S31508004E900C4B1A6922F400421A611A69D4F8B81040
S31508004EA00A431A612368002B03DB06B10126304644
S31508004EB0F8BD044AD36C23F04053216D0B43D364E9
S31508004EC0F3E700BF0044025808B5FFF731FA054B6F
S31508004ED01B6AC3F30213044AD35C03F01F03D840CA
S31508004EE008BD00BF00440258D003002030B47749FB
S31508004EF08C6A8A6AC2F30532CD6AC5F30015CB6B94
S31508004F00C3F3CC0303FB05F3002A00F0DA8004F0B0
S31508004F10030407EE903AF8EE677A012C66D0FCB1E6
S31508004F20022C00F0B18007EE102AB8EE477A9FED02
S31508004F30686AC6EE076A654B9B6BC3F3080307EE00
S31508004F40103AB8EE477A9FED636A67EE867A77EE8F
S31508004F50277AB7EE007A77EE877A66EEA76A61E077
S31508004F605A4B1B6813F0200F23D0584C2168C1F305
S31508004F70C101594BCB4007EE103AB8EE477A06EE18
S31508004F80902AB8EE666AC7EE066AA36BC3F30803EF
S31508004F9007EE103AB8EE477A9FED4E6A67EE867AC4
S31508004FA077EE277AB7EE007A77EE877A66EEA76A03
S31508004FB038E007EE102AB8EE477A9FED486AC6EE43
S31508004FC0076A424B9B6BC3F3080307EE103AB8EE29
S31508004FD0477A9FED406A67EE867A77EE277AB7EECC
S31508004FE0007A77EE877A66EEA76A1BE007EE102A44
S31508004FF0B8EE477A9FED366AC6EE076A334B9B6B67
S31508005000C3F3080307EE103AB8EE477A9FED316A04
S3150800501067EE867A77EE277AB7EE007A77EE877AA2
S3150800502066EEA76A294A936BC3F3462307EE103A3E
S31508005030B8EE477AB7EE006A37EE067AC6EE877A92
S31508005040FCEEE77AC0ED007A936BC3F3064307EEEE
S31508005050103AB8EE477A37EE067AC6EE877AFCEE4D
S31508005060E77AC0ED017A936BC3F3066307EE903ACD
S31508005070F8EE677A77EE867A86EEA77ABCEEC77A76
S3150800508080ED027A30BC704707EE102AB8EE477AF0
S315080050909FED136AC6EE076A0C4B9B6BC3F30803B6
S315080050A007EE103AB8EE477A9FED0A6A67EE867AF7
S315080050B077EE277AB7EE007A77EE877A66EEA76AF2
S315080050C0B0E70023036043608360DBE700440258CF
S315080050D00024744A000000390090D0030024744C60
S315080050E00000FA4A30B477498C6A8A6AC2F30552D4
S315080050F0CD6AC5F300254B6CC3F3CC0303FB05F35C
S31508005100002A00F0DA8004F0030407EE903AF8EE7D
S31508005110677A012C66D0FCB1022C00F0B18007EE4C
S31508005120102AB8EE477A9FED686AC6EE076A654B9D
S315080051301B6CC3F3080307EE103AB8EE477A9FEDE7
S31508005140636A67EE867A77EE277AB7EE007A77EEA5
S31508005150877A66EEA76A61E05A4B1B6813F0200F40
S3150800516023D0584C2168C1F3C101594BCB4007EEF7
S31508005170103AB8EE477A06EE902AB8EE666AC7EE97
S31508005180066A236CC3F3080307EE103AB8EE477AAB
S315080051909FED4E6A67EE867A77EE277AB7EE007A43
S315080051A077EE877A66EEA76A38E007EE102AB8EE39
S315080051B0477A9FED486AC6EE076A424B1B6CC3F3F3
S315080051C0080307EE103AB8EE477A9FED406A67EE95
S315080051D0867A77EE277AB7EE007A77EE877A66EEE2
S315080051E0A76A1BE007EE102AB8EE477A9FED366AE3
S315080051F0C6EE076A334B1B6CC3F3080307EE103A77
S31508005200B8EE477A9FED316A67EE867A77EE277AA7
S31508005210B7EE007A77EE877A66EEA76A294A136CA4
S31508005220C3F3462307EE103AB8EE477AB7EE006A9C
S3150800523037EE067AC6EE877AFCEEE77AC0ED007A94
S31508005240136CC3F3064307EE103AB8EE477A37EE07
S31508005250067AC6EE877AFCEEE77AC0ED017A136C19
S31508005260C3F3066307EE903AF8EE677A77EE867A26
S3150800527086EEA77ABCEEC77A80ED027A30BC704714
S3150800528007EE102AB8EE477A9FED136AC6EE076A4C
S315080052900C4B1B6CC3F3080307EE103AB8EE477ABB
S315080052A09FED0A6A67EE867A77EE277AB7EE007A76
S315080052B077EE877A66EEA76AB0E700230360436055
S315080052C08360DBE7004402580024744A0000003972
S315080052D00090D0030024744C0000FA4A144BDB6893
S315080052E013F0010F09D0124B124A5A6002F18832A4
S315080052F05A60DB6813F0010F16D10D4BD3F80C3149
S3150800530013F0010F12D00A4B0A4AC3F8042102F11E
S315080053108832C3F80421D3F80C3113F0010F01D1F8
S315080053200020704701207047012070470020704711
S3150800533000200052230167450D4BDA6842F001024E
S31508005340DA60DB6813F0010F0FD0094BD3F80C2194
S3150800535042F00102C3F80C21D3F80C3113F0010F07
S3150800536001D000207047012070470120704700BF18
S3150800537000200052014B9869704700BFC82D0020D5
S31508005380F8B505460E4600F0E3FB0746012E09D0A0
S31508005390374C14E000F0DCFBC01B854261D375B9BD
S315080053A00320F8BD04240AE0324B1B6934EA0303E0
S315080053B00CBF0123002383B1B5F1FF3FEAD134F0D6
S315080053C00403F1D02B4BD3F8103124EA030333F04E
S315080053D000430CBF01230023EDE7012E1AD0254B0D
S315080053E0D3F8103123F0684323F480135B0C5B0475
S315080053F043F0004333F0024219D01F498A691A4321
S315080054008A61002B0FDA23F000431A4AC2F81431D6
S315080054100120F8BD174B1B6923F0684323F480135A
S315080054205B0C5B04E6E7134A53610120F8BD012EC5
S315080054300CD0104BD3F8103113F4803F15D04FF42D
S3150800544080320C4BC3F814210020F8BD094B1B69A8
S3150800545013F4803F07D04FF48032064B5A61002080
S31508005460F8BD0320F8BD0020F8BD0020F8BD00BF38
S315080054700400008000200052C82D00202C4B1B7D04
S31508005480012B51D070B50C4615460122284B1A75CA
S3150800549001F17841B1F5801F38D216460022244B17
S315080054A09A6131464CF25030FFF76AFF034640BB1B
S315080054B0012E2DD01F4AD2F80C3143F00203C2F850
S315080054C00C31BFF36F8FBFF34F8F082355F8042BAA
S315080054D044F8042B013B13F0FF03F7D1BFF36F8F9A
S315080054E0BFF34F8F31464CF25030FFF749FF034662
S315080054F0012E13D00F49D1F80C2122F00202C1F86F
