S01400006275696C642F6837626F6F742E737265637E
S315080000000000022099020008990400009B040000E1
S315080000109D0400009F040000A104000000000000E9
S31508000020000000000000000000000000A30400001B
S31508000030A504000000000000A7040000A9040000B1
S315080000401503000815030008150300081503000822
S315080000501503000815030008150300081503000812
S315080000601503000815030008150300081503000802
S3150800007015030008150300081503000815030008F2
S3150800008015030008150300081503000815030008E2
S3150800009015030008150300081503000815030008D2
S315080000A015030008150300081503000815030008C2
S315080000B015030008150300081503000815030008B2
S315080000C015030008150300081503000815030008A2
S315080000D01503000815030008150300081503000892
S315080000E015030008150300080000000015030008A2
S315080000F01503000815030008150300081503000872
S315080001001503000815030008150300081503000861
S315080001101503000815030008150300081503000851
S315080001201503000815030008150300081503000841
S315080001301503000815030008150300081503000831
S3150800014000000000000000000000000000000000A1
S315080001501503000815030008150300081503000811
S315080001601503000815030008150300081503000801
S3150800017015030008150300081503000815030008F1
S3150800018015030008150300081503000815030008E1
S3150800019015030008150300081503000815030008D1
S315080001A015030008150300081503000815030008C1
S315080001B015030008B104000015030008150300081C
S315080001C015030008150300081503000815030008A1
S315080001D015030008C10400001503000815030008EC
S315080001E01503000815030008150300081503000881
S315080001F01503000815030008150300081503000871
S315080002001503000815030008150300081503000860
S315080002101503000815030008150300081503000850
S315080002201503000815030008150300080000000060
S315080002301503000815030008000000001503000850
S315080002401503000815030008150300081503000820
S315080002501503000815030008150300081503000810
S315080002601503000815030008150300081503000800
S315080002701503000815030008150300080000000010
S315080002801503000815030008150300080000000000
S30D08000290000000001503000838
S31508000298DFF854D0002103E0144B5B58435004316F
S315080002A81348144B42189A42F6D3002103E0124B1E
S315080002B85B58435004311148114B42189A42F6D3F9
S315080002C8104A02E0002342F8043B0F4B9A42F9D33E
S315080002D8BFF34F8FBFF36F8F00F022F800F01CF8BA
S315080002E800F016F87047000000000220982300085E
S315080002F8000000201C00002030030008000400004D
S315080003086024000020000020AC240020FEE700003E
S315080003185FF800F0750400005FF800F0012400009B
S30D080003285FF800F0E51900007A
S3150800033010B5054C237833B9044B13B10448AFF311
S3150800034000800123237010BD20000020000000005B
S31508000350482400000C4B43B10C480D4910B5AFF3C7
S3150800036000800C48036823B910BD0A48036833B9EE
S315080003707047094B002BF7D0BDE810401847064BCD
S31508000380002BF5D0184700BF0000000048240000E5
S31508000390240000201C0000200000000008B5436867
S315080003A09847000008B50148FFF7F8FF0000020863
S315080003B000BE7047034A136801331360BFF35F8FAB
S315080003C0704700BF3C0000207047FEE7FEE7FEE7E7
S315080003D0FEE770477047704708B501F01DFA08BD7B
S315080003E008B5024801F02AFA08BD00BF68000020D7
S315080003F008B5024800F0DAF908BD00BFA0200020C1
S3150800040008B500F57171D0F8040401F0D5FA08BDF5
S3150800041008B5C1EBC10293000344D3F80822D0F80B
S31508000420040401F0F6FA08BD08B5C1EBC102930051
S3150800043003449A6CD0F8040401F035FB08BD08B5EE
S31508000440D0F8040401F0DAFB08BD10B50446C36809
S315080004502BB1022B0DD0FFF7ABFF012100E00021E5
S31508000460D4F8040401F0B3FBD4F8040401F087FBC4
S3150800047010BD0121F4E7000010B50446D0F80404C5
S3150800048001F0A8FB2268D2F8003E43F00103C2F847
S31508000490003E236A23B1034A136943F00603136136
S315080004A010BD00BF00ED00E008B5D0F8040401F067
S315080004B09AFB08BD08B5D0F8040401F0AFFB08BDE7
S315080004C008B5D0F8040401F0A7FB08BD08B5D0F8B4
S315080004D0040401F0A5FB08BD08B5D0F8040401F032
S315080004E0A1FB08BDD0F8C03211F0800F08D101F089
S315080004F07F01C1EBC1018A00134493F8FE017047DE
S3150800050001F07F01C1EBC1018A00134493F83E0054
S31508000510704718B1022803D00220704700207047A0
S315080005200120704710B51C4613462246D0F8C00273
S3150800053000F0C4FBFFF7EDFF10BD08B5D0F8C00208
S3150800054000F055FCFFF7E5FF08BD08B5D0F8C00276
S3150800055000F08EFCFFF7DDFF08BD08B5D0F8C00235
S3150800056000F098FBFFF7D5FF08BD08B5D0F8C00224
S3150800057000F013FCFFF7CDFF08BD08B5D0F8C002A0
S3150800058000F0DDFBFFF7C5FF08BD2DE9F04782B097
S31508000590D0F80080CA00521A930003445A6D1B6DA6
S315080005A09A4255D8C1469B1AC1EBC104A20002441F
S315080005B0526C934200D81A460C46074602F1030AC3
S315080005C04FEA9A0A15E006F1030A4FEA9A0AE30087
S315080005D01B1B9D003D44A96C3B7C0093B3B2E2B261
S315080005E0404600F0EBFDAB6C3344AB646B6D1E44C8
S315080005F06E6509EB441303F510639B699BB29A4534
S3150800060012D8E3001B1B9A003A44516D136D9942A8
S315080006100AD24BB15B1AC4EBC4018A003A44566C41
S31508000620B342D0D81E46CEE7E3001B1B980007440A
S315080006303A6D7B6D9A420FD804F00F040123A3404C
S31508000640D8F8344824EA0304C8F83448002000E0FF
S31508000650012002B0BDE8F0870020FAE770B504462D
S315080006600D460068066C00EB411303F53063996884
S315080006702269012A11D0374A964254D03DB9C5EBB2
S31508000680C50293002344D3F81032002B5CD0E9B29C
S315080006902046FFF7BDFE002070BD11F0080F09D0F7
S315080006A02D4A9642F7D911F4004FF4D04FF4004280
S315080006B09A60F0E711F0200F28D111F0280FEAD13F
S315080006C0254A964202D911F4004F22D1E900491B66
S315080006D08A002244D2F804121B69C3F31203C91A0A
S315080006E0C2F81412D2F80412D2F808320B44C2F82F
S315080006F0083235B9C5EBC50293002344D3F8103246
S315080007005BB1E9B22046FFF783FEC4E720229A6070
S31508000710C1E74FF400429A60BDE704F57172012102
S3150800072000F030FFEDE711F4004F09D111F0200F6A
S3150800073001D020229A60E9B22046FFF769FEAAE7AF
S315080007404FF400429A60A6E704F57172002100F0A2
S3150800075019FF9CE70A31544F0A30544F38B50446FE
S3150800076003681D6C03EB4111D1F8082B0E4B9D4213
S3150800077007D901F5306112F4004F02D04FF4004357
S315080007808B602046FFF73CFE074B9D4202D9236942
S31508000790012B01D0002038BD04F5717201212068B3
S315080007A000F0F0FEF6E700BF0A30544F2DE9F84F87
S315080007B004460568284600F0D0FE08B1BDE8F88F63
S315080007C02F460646206800F098FE0028F6D02068D6
S315080007D000F093FE10F0020F04D02268536903F06C
S315080007E002035361206800F088FE10F0100F15D040
S315080007F02268936923F010039361D5F8208008F0E6
S315080008000F09C8F34343022B00F08580062B00F03E
S31508000810A5802268936943F010039361206800F06D
S315080008206CFE10F4002F40F0AD80206800F065FEE5
S3150800083010F4802F40F0F180206800F05EFE00285A
S31508000840C0F25F81206800F058FE10F4006F0AD0ED
S31508000850D5F8083813F0010F40F06D812268536906
S3150800086003F400635361206800F047FE10F0006F40
S3150800087015D02268536903F00063536194F8F43382
S31508000880002B40F05C81012184F8F41323685B6D2A
S31508000890C3F38303C4F8F833204600F020FB20682E
S315080008A000F02BFE10F4805F40F04D81206800F0C8
S315080008B024FE10F4005F40F0AB81206800F01DFEB6
S315080008C010F0080F40F0BC81206800F016FE10F406
S315080008D0801F40F0BE81206800F00FFE10F4001F54
S315080008E040F0C181206800F008FE10F0804F40F00B
S315080008F0C481206800F001FE10F0040F3FF45EAFDB
S3150800090023685D6815F0040F40F0C08123685A68B3
S3150800091015435D6052E747F6F07318EA030F3FF494
S3150800092078AF4FEAC90BABEB09034FEA830AA24437
S315080009304FEA1818C8F30A02DAF80812284600F02F
S315080009405DFDC8F30A08DAF808324344CAF80832E3
S31508000950DAF814324344CAF814325AE7082204F57E
S315080009607171284600F04AFDC8F30A184FEAC90310
S31508000970A3EB09018A002244D2F814324344C2F890
S31508000980143246E7206800F0BCFD8046B14617E001
S3150800099007EB49130122C3F8082B49462046FFF7FF
S315080009A05DFE1DE007EB49130822C3F8082B4946EC
S315080009B02046FFF7D3FE16E009F101094FEA580869
S315080009C0B8F1000F3FF431AF18F0010FF4D05FFA19
S315080009D089F1206800F0A5FD824610F0010FD7D1F5
S315080009E01AF0080FDED11AF0100F04D007EB4913DE
S315080009F01022C3F8082B1AF0200F04D007EB49136E
S31508000A002022C3F8082B1AF4005FD5D007EB491348
S31508000A104FF40052C3F8082BCEE7206800F079FDA2
S31508000A208046B1462AE059462046FFF7FDFC1AF0F3
S31508000A30080F04D007EB49130822C3F808291AF04F
S31508000A40100F04D007EB49131022C3F808291AF02F
S31508000A50400F04D007EB49134022C3F808291AF0BF
S31508000A60020F04D007EB49130222C3F808291AF02B
S31508000A70800F41D109F101094FEA5808B8F1000F72
S31508000A803FF4DAAE18F0010FF4D05FFA89FB594645
S31508000A90206800F04FFD824610F0010FC7D009F01C
S31508000AA00F03012101FA03F2D7F8343823EA0203C7
S31508000AB0C7F8343807EB4913C3F8081923698B427A
S31508000AC0B1D14FEAC902A2EB090293002344596C3B
S31508000AD09A6C0A449A64B9F1000FA4D1C9EBC90209
S31508000AE0930023441B6D002B9DD104F571720121DF
S31508000AF0206800F047FD96E749462046FFF745FD82
S31508000B00B8E7D5F8043823F00103C5F8043894F893
S31508000B10F433012B08D02046FFF7C6FC2268536938
S31508000B2003F0004353618DE6002184F8F413204650
S31508000B3000F0D5F9F2E72046FFF79EFC8EE6204640
S31508000B40FFF79AFCABE605F50068D8F8043023F001
S31508000B500103C8F804301021206800F037FA20E0B5
S31508000B6007EB46134FF67F31C3F80819D3F8002967
S31508000B7022F40012C3F80029D3F8002942F00062D3
S31508000B80C3F80029C3F8081BD3F8002B22F4001277
S31508000B90C3F8002BD3F8002B42F00062C3F8002BF1
S31508000BA0013663689E42DBD3D8F81C3043F0011344
S31508000BB0C8F81C30236BEBB1D8F8843043F00B032C
S31508000BC0C8F88430D8F8443043F00B03C8F84430EA
S31508000BD0D5F8003823F4FE63C5F8003804F57172B9
S31508000BE0217C206800F0CEFC2268536903F4805308
S31508000BF053615BE6D8F8142042F22B031343C8F876
S31508000C001430D8F8103043F00B03C8F81030DFE77B
S31508000C10206800F0A7FC206800F0ECF9E060256881
S31508000C2000F0D8FD227B0146284600F059F92046F7
S31508000C30FFF70BFC2268536903F4005353613CE643
S31508000C402046FFF7FCFB2268536903F0080353614B
S31508000C503AE600212046FFF733FC2268536903F47D
S31508000C608013536137E600212046FFF723FC2268EC
S31508000C70536903F40013536134E62046FFF726FC54
S31508000C802268536903F08043536132E62046FFF732
S31508000C9023FC3BE690F8BC33012B01D102207047B8
S31508000CA010B50446012380F8BC3380F83810006874
S31508000CB000F013FC002084F8BC0310BDF8B511F051
S31508000CC0800F1ED101F00F06F500AF1BBC002746AA
S31508000CD004F5FC74044404343E460644002586F8AC
S31508000CE0FD5101F00F012170A260E370627802B134
S31508000CF0E180022B14D090F8BC33012B13D10220CB
S31508000D00F8BD01F00F06F500AF1BBC0027463834C6
S31508000D10044404343E460644012586F83D50E0E77F
S31508000D2000232371E7E70546012380F8BC332146F3
S31508000D30006800F06FF9002085F8BC03F8BD70B5AF
S31508000D4001F00F05EE00711B8C0004F5FC740444D9
S31508000D50211D761BB4000444C4F80822C4F81032D6
S31508000D600023C4F8143284F8FD3184F8FC51036971
S31508000D70012B06D065B1DAB2006800F033FA00201C
S31508000D8070BDC5EBC506B4000444C4F80C22F1E7EF
S31508000D90DAB2006800F086F9F1E770B501F00F05E0
S31508000DA0EE00711B8C0038340444211D761BB400F8
S31508000DB00444A264236500236365012384F83D3057
S31508000DC084F83C500369012B06D05DB1DAB200689D
S31508000DD000F008FA002070BDC5EBC506B40004444F
S31508000DE0E264F2E7DAB2006800F05CF9F2E738B5D7
S31508000DF001F00F0543689D4238D811F0800F15D1D0
S31508000E00CA00541AA3001C4603F5FC7303440433B2
S31508000E1022460244002182F8FD1101229A701D70B3
S31508000E2090F8BC23012A0DD1022038BDEA00511BD7
S31508000E308B0019463833034404330144012281F8F0
S31508000E403D20EAE70446012280F8BC2319460068DB
S31508000E5000F0E8FA1DB1002084F8BC0338BD04F59B
S31508000E607172217C206800F08DFBF4E7012038BD03
S31508000E7001F00F03426893422FD810B511F0800F86
S31508000E8014D1DA00D41AA1000C4601F5FC7101440C
S31508000E9004310444002284F8FD2100228A700B7074
S31508000EA090F8BC33012B0DD1022010BDDA00D41AFC
S31508000EB0A1000C463831014404310444012284F867
S31508000EC03D20EAE70446012380F8BC33006800F0B9
S31508000ED0D6FA002084F8BC0310BD0120704770477D
S31508000EE0022A0AD00921C26822F47052C260C36875
S31508000EF043EA8123C36000207047274B0B44274AE7
S31508000F00934239D9264B0B44264A934236D9264B67
S31508000F100B44264A934233D9254B0B4402F5C33278
S31508000F20A03293422ED9234B0B44234A93422BD902
S31508000F30224B0B4402F5922202F57872934225D988
S31508000F401F4B0B4402F5C32202F5207293421FD9A8
S31508000F501C4B0B4402F5B71202F55872934219D985
S31508000F60194B0B4402F5122202F5F862934201D995
S31508000F700621B8E70721B6E70F21B4E70E21B2E745
S31508000F800D21B0E70C21AEE70B21ACE70A21AAE751
S31508000F900921A8E70821A6E7405327FFFF340C00DC
S31508000FA0401E1BFF3F420F0000DC0BFF7F4F120065
S31508000FB0808CF9FE60B6E5FE5FE3160000D3CEFE30
S31508000FC0C05BB3FE00CA91FEE05459FE890141F0A8
S31508000FD02001016100230133054A934205D80269BD
S31508000FE012F0200FF7D1002070470320704700BF8A
S31508000FF0400D0300D0F8083813F0060305D0062B79
S3150800100018BF022B03D102207047002070470F201B
S315080010107047000070B40B784A78012A20D0D0F8BF
S315080010201C2803F00F060124B44042EA0442C0F823
S315080010301C2800EB4310D0F8003B13F4004F0CD1EA
S31508001040D0F8002B8B68C3F30A03C97843EA8143B7
S315080010501343134A1A43C0F8002B002070BC70478C
S31508001060D0F81C4803F00F06B24092B22243C0F8EB
S315080010701C2800EB4310D0F8002912F4004FECD1DD
S31508001080D0F800498A68C2F30A02C97842EA81425E
S3150800109042EA83532343024A1A43C0F80029DCE78D
S315080010A00080001070B40B784C78012C24D000EB2B
S315080010B0431000F530631D693E4C2C401C611D69C8
S315080010C03D4C2C401C614C690CB18C684C611C6908
S315080010D044F400241C611C698D68C5F312052C4371
S315080010E01C61012A61D0D0F8003B43F00443C0F8E4
S315080010F0003B002070BC70474C695CBB00EB431496
S31508001100D4F810692C4D3540C4F81059D4F8105944
S3150800111045F40025C4F81059D4F81069254D354012
S31508001120C4F81059012A31D000EB4313D3F800292B
S3150800113042F00442C3F800294B69002BD9D0D0F8F5
S315080011403428097801F00F040121A1400A43C0F8A8
S315080011503428CEE700EB431404F510642669154DD0
S31508001160354025612669144D354025614E698D68DF
S31508001170AE4200D94D61256945F4002525612569EA
S315080011804E69C6F3120635432561CBE70A691AB1DB
S3150800119000EB4311C1F8142900EB4310D0F80029DD
S315080011A042F00442C0F80029A3E7CA68002A9AD088
S315080011B05A6198E70000F8FFFFFF07E070B49DF852
S315080011C00C4064B903339E0807E000EB023303F5CD
S315080011D0805351F8045B1D600134B442F5D30020F6
S315080011E070BC7047F0B583B00C784B78012B29D0CA
S315080011F000EB441404F530631E697D4D35401D61CE
S315080012001E697C4D35401D614D69002D40F0C18039
S315080012101D698E68C6F3120635431D611D6945F4BE
S3150800122000251D61012A00F0C980CB78012B00F04A
S31508001230CB80D4F8003B43F00443C4F8003B0020BD
S3150800124003B0F0BD4B6973BB00EB4413D3F81069C8
S31508001250684D3540C3F81059D3F8105945F40025A0
S31508001260C3F81059D3F81069614D3540C3F81059C1
S31508001270012A4AD000EB4414D4F8003943F0044359
S31508001280C4F80039CB78012B68D04B69002BD6D02F
S31508001290D0F834380A7802F00F0101228A40134345
S315080012A0C0F83438CBE700EB4413D3F81069504D37
S315080012B03540C3F81059D3F810694E4D3540C3F878
S315080012C01059D3F810694D698F683D44013DB5FB47
S315080012D0F7F5494F07EAC5453543C3F81059D3F81A
S315080012E010594E69C6F312063543C3F8105903F56B
S315080012F01063CD78012DBBD11D6925F0C0451D6150
S315080013001D6945F000551D61B2E70B691BB100EB7D
S315080013104412C2F81439CB78012B08D000EB4414D8
S31508001320D4F8003943F00443C4F8003987E7D0F805
S31508001330083813F4807F08D100EB4412D2F800393C
S3150800134043F00053C2F80039E8E700EB4412D2F83C
S31508001350003943F08053C2F80039DFE7D0F808387F
S3150800136013F4807F0ED1D4F8003943F00053C4F843
S31508001370003914460B46C9681A789B8A0094FFF709
S315080013801DFF5CE7D4F8003943F08053C4F80039F0
S31508001390EFE78E683544013DB5FBF6F51E69164F35
S315080013A007EAC5473E431E611F698E68ADB206FB54
S315080013B005F5C5F312053D431D6133E7CA68002AE2
S315080013C03FF433AF5A6130E7D0F8083813F4807F1A
S315080013D006D1D4F8003B43F00053C4F8003B28E795
S315080013E0D4F8003B43F08053C4F8003B21E700BF24
S315080013F00000F8FFFFFF07E00000F81F033292081D
S31508001400002393420CD210B400F58054246841F8A6
S31508001410044B01339342F7D308465DF8044B7047F3
S31508001420084670470B784A78012A14D000EB431017
S31508001430D0F8002B002A06DB2BB1D0F8003B23F0AE
S315080014408043C0F8003BD0F8003B43F40013C0F8D3
S31508001450003B0020704700EB4310D0F80029002A13
S3150800146006DB2BB1D0F8003923F08043C0F80039E9
S31508001470D0F8003943F40013C0F80039E9E70B78CF
S315080014804A78012A0ED000EB4310D0F8003B23F42B
S315080014900013C0F8003BCB78023BDBB2012B15D911
S315080014A00020704700EB4310D0F8003923F40013EE
S315080014B0C0F80039CB78023BDBB2012BF0D8D0F864
S315080014C0003943F08053C0F80039E9E7D0F8003B0B
S315080014D043F08053C0F8003BE2E7D0F8003823F425
S315080014E0FE63C0F80038D0F80038090101F4FE613F
S315080014F00B43C0F8003800207047426980691040E5
S315080015007047D0F8183800F50060C0691840000C1C
S315080015107047D0F8183800F50060C069184080B2E6
S31508001520704700EB4111D1F8082B00F500604069BF
S315080015301040704710B4D0F81028D0F8343801F0AD
S315080015400F04E340DB01DBB2134300EB4111D1F892
S31508001550080918405DF8044B7047406900F001001F
S3150800156070470000D0F80029054B1340C0F8003931
S31508001570D0F8043843F48073C0F804380020704764
S3150800158000F8FFFF10B4046C154B9C4203D9D0F841
S31508001590003B002B16DB0024C0F8104BD0F8104B8C
S315080015A044F40024C0F8104BD0F8104B44F018044B
S315080015B0C0F8104BD0F8104B44F0C044C0F8104B9C
S315080015C0012903D000205DF8044B7047C0F8142B9E
S315080015D0D0F8003B43F08023C0F8003BF2E700BF99
S315080015E00A30544F744B1B6903F03803102B00F074
S315080015F0DF80182B11D00BB1704870476E4B1B68F3
S3150800160013F0200F01D16E4870476B4B1868C0F372
S31508001610C1006B4B23FA00F0704710B4664A916A12
S3150800162001F00301906AC0F30510D46A04F00104BE
S31508001630536BC3F3CC0303FB04F307EE903AF8EEBF
S31508001640677A002800F09480012966D0F9B102294A
S3150800165000F0918007EE100AF8EE476A9FED596A86
S3150800166086EE267A544B1B6BC3F3080306EE903AB4
S31508001670F8EE666A9FED546A67EE867A76EEA77A82
S31508001680F7EE006A77EEA67A27EE277A61E04A4BEC
S315080016901B6813F0200F23D047490A68C2F3C1021A
S315080016A0474BD34007EE103AF8EE476A07EE100AA2
S315080016B0B8EE476A86EE867A0B6BC3F3080306EE26
S315080016C0903AF8EE666A9FED406A67EE867A76EE9D
S315080016D0A77AF7EE006A77EEA67A27EE277A38E039
S315080016E007EE100AF8EE476A9FED386A86EE267A04
S315080016F0314B1B6BC3F3080306EE903AF8EE666AA5
S315080017009FED316A67EE867A76EEA77AF7EE006A7B
S3150800171077EEA67A27EE277A1BE007EE100AF8EE90
S31508001720476A9FED286A86EE267A234B1B6BC3F31E
S31508001730080306EE903AF8EE666A9FED236A67EEAE
S31508001740867A76EEA77AF7EE006A77EEA67A27EE1D
S31508001750277A194B1B6BC3F34623013307EE903ADE
S31508001760F8EE677AC7EE276AFCEEE67A17EE900A75
S315080017705DF8044B704707EE100AF8EE476A9FEDCE
S31508001780146A86EE267A0C4B1B6BC3F3080306EE27
S31508001790903AF8EE666A9FED0C6A67EE867A76EE00
S315080017A0A77AF7EE006A77EEA67A27EE277AD0E7C9
S315080017B04FF4FA00704700BF0044025800093D0084
S315080017C00090D0030024744A000000390024744CA9
S315080017D00000FA4A08B5FFF705FF0B4A9369C3F3F9
S315080017E003230A49CB5C03F01F0320FA03F392692B
S315080017F002F00F02885C00F01F0023FA00F0044A8A
S315080018001060044A136008BD004402580C0000200A
S315080018100800002004000020034B1B78034A1168C7
S315080018200B441360704700BF00000020A824002066
S3150800183070477047704770477047704710B5044641
S3150800184003681A6812F0010F03D09A6812F0010FA4
S3150800185036D123681A6812F0020F03D09A6812F07C
S31508001860020F32D123681A6812F0040F03D09A685F
S3150800187012F0040F2FD123681A6812F0080F03D04C
S315080018809A6812F0080F2CD123681A6812F0100F04
S3150800189003D09A6812F0100F29D123681A6812F03B
S315080018A0200F03D09A6812F0200F26D123681A68F1
S315080018B012F0400F03D09A6812F0400F23D110BDE2
S315080018C001225A60FFF7B4FFC3E702225A60204696
S315080018D0FEF770FDC6E704225A602046FFF7A9FF07
S315080018E0C9E708225A602046FFF7A4FFCCE7102272
S315080018F05A602046FFF79FFFCFE720225A6020460E
S31508001900FFF79AFFD2E740225A602046FFF795FF75
S31508001910D5E70000184AD2F8883043F47003C2F8B5
S315080019208830164B1A6842F001021A6000221A61C2
S3150800193018681349014019609A61DA611A629A6255
S31508001940DA621A635A639A63DA631A645A6419681C
S3150800195021F4802119601A660A4B1A680A4B13404B
S31508001960B3F1005F02D20122084B1A604FF0006201
S31508001970014B9A60704700BF00ED00E00044025832
S315080019807FEDF6EA0010005C0000FFFF08810051B9
S3150800199008B5D0F8B43223B11B68984718B10220AD
S315080019A008BD022008BD002008BD08B5D0F8B4322D
S315080019B05B689847002008BD38B5044600F52A75C7
S315080019C0284600F044F90123C4F89432B4F8AE323C
S315080019D0C4F8983294F8A81201F01F03012B0ED010
S315080019E03BB1022B10D001F080012046FEF7A5FD81
S315080019F003E02946204600F0F8FA002038BD2946BB
S31508001A00204600F026FBF8E72946204600F051FB61
S31508001A10F3E738B50446A9BB1046D4F89432032B2D
S31508001A2003D0052B25D0002038BDD4F86031D4F872
S31508001A30642193420DD99B1AC4F860319A4206D99B
S31508001A409AB20146204600F055FC002038BD92B2F5
S31508001A50F7E7D4F8B4321B691BB194F89C22032A21
S31508001A6004D0204600F04EFC002038BD204698479A
S31508001A70F7E70025C4F8945229462046FEF75DFD8F
S31508001A80284638BD0A46D0F8B4329B694BB190F85F
S31508001A909C12032901D0022038BD11469847002020
S31508001AA038BD022038BD10B50446002956D1104667
S31508001AB0D4F89432022B09D0002B18BF042B44D03B
S31508001AC094F8A032012B45D0002010BD236A626A23
S31508001AD093421BD8E169B1FBF2F302FB13132BB94E
S31508001AE08A4203D8D4F8983299421DD3D4F8B4322E
S31508001AF0DB681BB194F89C22032A23D08021204658
S31508001B00FEF71BFD204600F008FCD9E79A1A226268
S31508001B1092B20146204600F0E5FB00231A46194614
S31508001B202046FEF72AFDCBE700221146204600F0A4
S31508001B30D9FB0021C4F898120B460A462046FEF740
S31508001B401CFDBDE720469847D8E780212046FEF7CA
S31508001B50F4FCB5E7002084F8A00210BD0A46D0F8C8
S31508001B60B4325B694BB190F89C12032901D002206C
S31508001B7010BD11469847002010BD022010BD70B553
S31508001B800446402300221146FEF7CCFC0125C4F882
S31508001B9058514026C4F86461334600228021204605
S31508001BA0FEF7C0FCA561666284F89C520023C4F85F
S31508001BB094326360C4F8A432D4F8B8322BB1D4F89E
S31508001BC0B4325B68002120469847002070BD017436
S31508001BD00020704790F89C3280F89D32042380F8E4
S31508001BE09C320020704790F89C32042B01D00020CC
S31508001BF0704790F89D3280F89C32F8E708B590F85F
S31508001C009C32032B01D0002008BDD0F8B432DB6922
S31508001C10002BF8D09847F6E7002070470020704759
S31508001C200020704708B5012280F89C22D0F8B4221B
S31508001C30526801799047002008BD08B54B88012BEA
S31508001C4000D008BDC0F8A43200F05CFBF9E70B78B9
S31508001C5003704B7843708B78CA7803EB0223438072
S31508001C600B794A7903EB022383808B79CA7903EBD4
S31508001C700223C380704710B504468021FEF75DFC39
S31508001C8000212046FEF759FC10BD30B583B0054645
S31508001C900C460023ADF806304A88130A013B062B8A
S31508001CA000F2C280DFE803F0041A30C0C09EAE001E
S31508001CB0D0F8B0321B680DF10601007C9847002366
S31508001CC053B9BDF806201AB1E388002B40F0B2805C
S31508001CD0E388002B00F0B88003B030BD037C4BB915
S31508001CE0D0F8B4329B6A0DF1060098470223437078
S31508001CF00023E5E7D0F8B432DB6A0DF10600984711
S31508001D00022343700023DBE7D2B2052A64D8DFE852
S31508001D1002F0031323334353D0F8B0325B682BB178
S31508001D200DF10601007C98470023C9E72146FFF715
S31508001D30A2FF01230020C3E7D0F8B0329B682BB17D
S31508001D400DF10601007C98470023B9E72146FFF705
S31508001D5092FF01230020B3E7D0F8B032DB682BB13D
S31508001D600DF10601007C98470023A9E72146FFF7F5
S31508001D7082FF01230020A3E7D0F8B0321B692BB1FC
S31508001D800DF10601007C9847002399E72146FFF7E5
S31508001D9072FF0123002093E7D0F8B0325B692BB1BC
S31508001DA00DF10601007C9847002389E72146FFF7D5
S31508001DB062FF0123002083E7D0F8B0329B692BB17C
S31508001DC00DF10601007C9847002379E72146FFF7C5
S31508001DD052FF0123002073E72146FFF74CFF01233A
S31508001DE000206DE7037C3BB9D0F8B4325B6B0DF18C
S31508001DF006009847002363E72146FFF73CFF0123C7
S31508001E0000205DE7037C4BB9D0F8B4321B6B0DF1AB
S31508001E100600984707234370002351E72146FFF73A
S31508001E202AFF012300204BE72146FFF724FF012361
S31508001E30002045E79A4228BF1A46ADF80620014613
S31508001E40284600F042FA43E7284600F05BFA43E7E3
S31508001E5038B504468B88F3B9CB88E3B94B887F2B12
S31508001E6019D803F07F0590F89C32032B0CD080F824
S31508001E709E522946FEF771FB204600F043FA35B11B
S31508001E80022384F89C3238BDFFF7F5FE38BD0123DE
S31508001E9084F89C3238BD2046FFF7EDFE38BD0000B9
S31508001EA038B504460D468978284B197001290ED88D
S31508001EB090F89C32022B0ED0032B21D02946FFF72F
S31508001EC0DAFE224B19782046FFF76FFD38BD294602
S31508001ED0FFF7D1FE38BD81B14160032380F89C32FB
S31508001EE0FFF756FD022803D0204600F00BFA38BD4E
S31508001EF029462046FFF7BFFE38BD00F003FA38BD75
S31508001F0089B1436899421DD0D9B2FFF74EFD0F4BF0
S31508001F10197861602046FFF73BFD02280DD0204660
S31508001F2000F0F0F938BD022380F89C324160FFF7D3
S31508001F303CFD204600F0E6F938BD29462046FFF765
S31508001F409AFE38BD00F0DEF938BD00BF400000201B
S31508001F5008B5CB88012B0BD190F89C329BB1022B8C
S31508001F6009D9032B0FD10122011D00F0AEF908BDD6
S31508001F70FFF781FE08BD0146002341F8083F01220C
S31508001F8000F0A3F908BDFFF776FE08BD08B590F87E
S31508001F909C32013B022B12D8CB88022B0CD1012391
S31508001FA0C360D0F8A4320BB10323C360022200F148
S31508001FB00C0100F08AF908BDFFF75DFE08BDFFF7C2
S31508001FC05AFE08BD08B590F89C32013B022B09D889
S31508001FD04B88012B00D008BD0023C0F8A43200F0BE
S31508001FE091F908BDFFF747FEF5E708B50B7803F04A
S31508001FF06003202B05D0402B03D043B1FFF73BFEEF
S3150800200003E0D0F8B4329B689847002008BD4B78A7
S31508002010092B1BD8DFE803F011171A141A08051A3A
S315080020200E0BFFF732FEF0E7FFF712FFEDE7FFF7BB
S3150800203037FFEAE7FFF78CFFE7E7FFF7A7FFE4E7D5
S31508002040FFF7FBFDE1E7FFF7BDFFDEE7FFF713FE4E
S31508002050DBE738B505460C460B7803F06003202B02
S3150800206005D0402B03D013B1FFF705FE0BE095F81A
S315080020709C32013B022B17D82379012B05D921461F
S315080020802846FFF7F8FD002038BDD5F8B4329B681E
S31508002090214628469847E388002BF4D10028F2D138
S315080020A0284600F02FF9EEE721462846FFF7E3FD1C
S315080020B0E9E738B504468A880B7803F06003202BD5
S315080020C008D0D0B2402B05D05BB12046FFF7D3FD30
S315080020D0002038BDD4F8B4329B68204698470020C3
S315080020E038BD202B12D04B78012B3AD0002B67D065
S315080020F0032B40F0E38094F89C32022B0CD0032B80
S315080021001DD02046FFF7B7FD002038BDD4F8B432FD
S315080021109B682046984738BD002818BF802809D0F4
S3150800212001462046FEF709FA80212046FEF705FA01
S31508002130002038BD2046FFF79EFD002038BD4B889D
S315080021402BB9002818BF802801D0CB8823B1204698
S3150800215000F0D8F8002038BD01462046FEF7EDF914
S31508002160F5E794F89C32022B06D0032B17D02046AD
S31508002170FFF781FD002038BD002818BF802809D048
S3150800218001462046FEF7D9F980212046FEF7D5F903
S31508002190002038BD2046FFF76EFD002038BD4B886D
S315080021A0002B40F0908010F07F0F04D1204600F0FD
S315080021B0A9F8002038BD01462046FEF7C6F9F5E71E
S315080021C094F89C32022B06D0032B2BD02046FFF71F
S315080021D052FD002038BD002818BF802813D112F000
S315080021E0800F15D100F07F0000EB8000830003F517
S315080021F0A8712144043100250D600222204600F012
S3150800220064F8284638BD2046FFF735FD002038BD5E
S3150800221000F07F0000EB8000830003F110012144E9
S315080022200431E8E752B2002A20DB00F00F0303EB83
S3150800223083039D002544D5F858312BB3002A28DBA3
S3150800224000F07F0202EB8202930003F5A87525448D
S315080022500435802818BF002825D100232B600222C8
S315080022602946204600F031F8002038BD00F00F035B
S3150800227003EB83039D002544AB69002BDED1204682
S31508002280FFF7F9FC002038BD2046FFF7F4FC0020D4
S3150800229038BD00F07F0202EB8202930003F11005BD
S315080022A025440435D5E701462046FEF71BF910B14B
S315080022B001232B60D3E700232B60D0E72046FFF7E6
S315080022C0DAFC002038BD002038BD10B513460222BE
S315080022D0C0F89422C36103620A460021FEF745F955
S315080022E0002010BD08B513460A460021FEF73DF941
S315080022F0002008BD08B513460A460021FEF73DF939
S31508002300002008BD08B50423C0F8943200231A46F5
S315080023101946FEF72AF9002008BD08B50523C0F8B6
S31508002320943200231A461946FEF727F9002008BDFD
S3150800233070B50D4E0D4CA41BA4100025A54209D15D
S315080023400B4E0C4C00F018F8A41BA4100025A5424F
S3150800235005D170BD56F8253098470135EEE756F891
S31508002360253098470135F2E79023000890230008A6
S315080023709023000894230008F8B500BFF8BC08BCF1
S315080023809E467047F8B500BFF8BC08BC9E46704725
S309080023902504000012
S309080023940104000032
S31508002398010000000090D0030090D0030000000060
S311080023A8010203040102030406070809E9
S7050800029957
